:020000040800F2
:100000007017002009020008453A00086132000814
:10001000413A0008150F0008C94000080000000020
:10002000000000000000000000000000913E0008F9
:10003000190F000800000000493A0008933E00082C
:1000400023020008230200082302000823020008FC
:1000500023020008230200082302000823020008EC
:1000600023020008230200082302000823020008DC
:1000700023020008230200082302000823020008CC
:1000800023020008230200082302000823020008BC
:1000900023020008230200082302000823020008AC
:1000A000230200082302000823020008230200089C
:1000B000230200082302000823020008230200088C
:1000C000230200082302000823020008230200087C
:1000D000230200082302000823020008230200086C
:1000E0002302000823020008230200080000000089
:1000F0000000000000000000000000000000000000
:100100000000000000000000230200082302000895
:100110002302000823020008193F0008293F0008B5
:10012000230200082302000823020008230200081B
:100130002302000800000000000000002302000865
:1001400023020008230200082302000823020008FB
:1001500000F002F800F048F80AA090E8000C824491
:100160008344AAF10107DA4501D100F03DF8AFF26E
:10017000090EBAE80F0013F0010F18BFFB1A43F085
:10018000010318476C5600008C560000103A24BF3B
:1001900078C878C1FAD8520724BF30C830C144BFEC
:1001A00004680C607047000000230024002500262E
:1001B000103A28BF78C1FBD8520728BF30C148BFCA
:1001C0000B607047642900F04581752900F0428179
:1001D000782900F07B81732900F08B830020704721
:1001E0001FB51FBD10B510BD00F0B9FB1146FFF7DC
:1001F000F7FF04F0DFFA00F0D7FB03B4FFF7F2FFDC
:1002000003BC00F0DFFB00000948804709480047B5
:10021000FEE7FEE7FEE7FEE7FEE7FEE7FEE7FEE7B6
:10022000FEE7FEE704480549054A064B7047000013
:10023000153F0008510100087011002070170020C0
:10024000701300207013002053EA020C00F0698044
:100250002DE9F04B4FF00006002B1FBFB3FA83F5DA
:1002600003FA05F424FA05F65E4012BF1643B2FA0B
:1002700082F502FA05F4C5F120051EBF22FA05FC3D
:1002800044EA0C04203556EA044C4FEA144418BFE3
:10029000641C4FF000084FF00009904271EB030C12
:1002A00039D3002919BFB1FA81F701FA07F6B0FA7C
:1002B00080F700FA07F6C7F120071EBF20FA07FCF7
:1002C00046EA0C062037B6FBF4FCA7EB0507103F07
:1002D00007F01F0BCBF120060CFA0BFB2CFA06F6ED
:1002E00044BFB3460026202FA4BF5E464FF0000B4C
:1002F0005BEA060C08BF4FF0010B19EB0B09ABFBD7
:10030000027C48EB0608C01B06FB02CC0BFB03CCAF
:1003100071EB0C01C1E70B46024641464846BDE879
:10032000F08B13B54FF000004FF00001AFF30080E9
:10033000BDE81C40704710B54C1084EA530404D546
:100340004042C1F1000138BF491E1B4204D5524250
:10035000C3F1000338BF5B1EFFF776FF14F0804F38
:1003600004D04042C1F1000138BF491E14F0004FD3
:1003700004D05242C3F1000338BF5B1E10BD000021
:100380000FB41CB50C0007AA009001D02044401EF9
:10039000074B7B4469460190069800F078FA002CE0
:1003A00003D06946002000F085FA1CBC5DF814FB00
:1003B0002905000070B5044685690068C10601D5AD
:1003C000302600E02026C00707D070BDD4E9012107
:1003D00030469047206A401C20626D1EF6D570BDE5
:1003E00070B5044685690078C00707D170BDD4E9AF
:1003F000012120209047206A401C20626D1EF6D506
:1004000070BD70B50C460546012A05D028788006D7
:1004100000D5EA69002302E0012305E05B1C93425A
:1004200002D2E05C0028F9D1A869E618C01AA861D8
:10043000286A184428622846FFF7BCFF04E0D5E983
:10044000012114F8010B9047B442F8D32846FFF776
:10045000C7FF70BD2DE9F0410646002410687529DC
:10046000314616A510D0AFF30080002802DA4042D2
:1004700013A507E031688A0701D512A502E04907F4
:1004800004D511A5012401E0AFF3008000210A2268
:1004900006F1240709E0B0FBF2FCB0FBF2F302FB2B
:1004A0001C00303078541846491C0028F3D12346EC
:1004B0002A463046BDE8F04100F08BB9000000004C
:1004C0002D0000002B0000002000000070B5044645
:1004D0000D4621461068AFF300802188090502D53A
:1004E0000F4A7A4402E00E4A7A440E32002104F1A7
:1004F000240305E000F00F060009965D5E54491CD8
:100500000028F7D120780023000704D5702D02D0F1
:1005100009B1022311322046BDE8704000F059B9FC
:100520000C5100002DE9F05F894604464FF0000AA7
:10053000DFF874B1FB44C0F820A02046E16888478A
:10054000002874D0252806D0D4E901219047206ADC
:10055000401C2062F1E700265F462046E16888479C
:100560002028054607DB312D05D2781910F8200C1C
:1005700008B10643F1E7B00701D526F00406C4F838
:100580001CA00027C4F818A02A2D09D0284603F083
:1005900070FF38B304EB8708303DC8F8185019E0F5
:1005A00059F8041B204604EB87029161E1688847F3
:1005B000012F054618D1E069002820DA26F0200630
:1005C0001DE0D8F8180000EB800005EB4000303843
:1005D000C8F818002046E1688847054603F049FF3F
:1005E0000028EED1012F0AD02E2D08D12046E16837
:1005F00088477F1C0546022F46F02006C4DBA06911
:10060000002803DA404246F00106A061F00701D05D
:1006100026F010066C2D0BD0682D09D04C2D39D04A
:100620006A2D35D0742D35D07A2D33D016E038E0D0
:10063000E1682F4620468847B842054609D16C2F0D
:1006400026D04FF48060E16806432046884705467F
:1006500004E06C2F1AD04FF4807006430DB3A5F15F
:100660004100192802D8203546F400664A4629463A
:10067000204626604E46FFF7A5FD80B101280BD02D
:10068000F61D26F0070000F1080956E74020E4E7D0
:100690008020D8E70020D6E706F104094DE7284678
:1006A00052E7206ABDE8F09FE250000040EA0103F3
:1006B000024630B59B0710D14FF0013400E008C26C
:1006C00008C91D1B9D4315EAC41FF8D013F0FF0194
:1006D00002F8011B0DD01B0AF8E711F8013B002BB3
:1006E00002F8013B05D011F8013B002B02F8013B59
:1006F000F3D130BD032A40F2308010F0030C00F03B
:10070000158011F8013BBCF1020F624498BF11F84B
:1007100001CB00F8013B38BF11F8013BA2F1040204
:1007200098BF00F801CB38BF00F8013B11F003037C
:1007300000F0E380083AC0F0088051F8043B083A22
:1007400051F804CBA0E80810F5E7121D5CBF51F882
:10075000043B40F8043BAFF30080D20724BF11F8FC
:10076000013B11F801CB48BF11F8012B24BF00F861
:10077000013B00F801CB48BF00F8012B70474FF058
:10078000000200B5134694469646203922BFA0E8E1
:100790000C50A0E80C50B1F12001BFF4F7AF0907ED
:1007A00028BFA0E80C5048BF0CC05DF804EB8900DE
:1007B00028BF40F8042B08BF704748BF20F8022B21
:1007C00011F0804F18BF00F8012B70477047704739
:1007D00070472DE9F0470D4699469246044600F1D0
:1007E00024080168880604D5E06921F01001216021
:1007F00000E00120A84201DD471B00E00027A169BD
:100800007A1902EB0900081AA0612078C00602D408
:100810002046FFF7CFFD002608E0D4E901211AF8B1
:1008200006009047206A401C761C20624E45F4DB8F
:100830002078C0060AD52046FFF7BCFD06E0D4E9C3
:10084000012130209047206A401C2062381EA7F109
:100850000107F4DC07E0D4E9012118F8050090470E
:10086000206A401C2062281EA5F10105F3DC204609
:10087000FFF7B6FD2078000602D50220BDE8F0871C
:100880000120FBE701694A1C02610878704700B546
:100890008FB0CDE901310021059105497944CDE9B9
:1008A000031011466846FFF73DFE0FB000BD000083
:1008B000E5FFFFFF0A6802F8010B0A607047D1E903
:1008C00000239A4202D2531C0B601070704710B57F
:1008D000436913B1AFF3008001E0FFF792FD0120FF
:1008E00010BD127800F124010A7000224A70012222
:1008F000EDE711684FF0FF32E9E710B5203AC0F09C
:100900000B80B1E81850203AA0E81850B1E8185010
:10091000A0E81850BFF4F5AF5FEA027C24BFB1E84D
:100920001850A0E8185044BF18C918C0BDE81040BE
:100930005FEA827C24BF51F8043B40F8043B08BFC7
:100940007047D20728BF31F8023B48BF11F8012B8E
:1009500028BF20F8023B48BF00F8012B70477546BE
:1009600000F02CF8AE4605006946534620F007001B
:10097000854618B020B5FFF755FCBDE820404FF084
:1009800000064FF000074FF000084FF0000B21F079
:100990000701AC46ACE8C009ACE8C009ACE8C00946
:1009A000ACE8C0098D46704710B50446AFF300802F
:1009B0002046BDE81040FFF720BC0000004870470B
:1009C0000C11002001491820ABBEFEE726000200F2
:1009D0007047000030B502460AB9134D00E0134DD0
:1009E0002C460AB1012500E000252B4601B930BD97
:1009F0002568A86900F001058D70C0F340054D70B1
:100A0000C0F380050D70C0F302154D71050CCD705B
:100A1000050E0D71064D55F82350CD60054D55F866
:100A200023508D6000BFE2E78C0F0020B40F002040
:100A300010000020180000202DE9F04F89B0054675
:100A4000884617460DB95B4800E05B48044601F054
:100A5000E1FC814601F0CEFC824601F0C5FC8346F4
:100A600001F0E8FCCDE900BACDF8089004900DB98A
:100A7000012000E00220024650A10020049B03F068
:100A800063F805A9404603F031FD064666B10DB98D
:100A9000012000E00220024658A1002003F054F893
:100AA000304609B0BDE8F08F204601F07EF82046C0
:100AB00000F066FE0DB9584800E0584820600598DF
:100AC00060600021A1600899E160069921610799A1
:100AD000616100212176012161760021A176012149
:100AE000E176002121776177204600F090FE0646EE
:100AF0005EB1636A0DB9012000E00220024648A100
:100B0000002003F021F83046CBE70DB9012000E0CA
:100B1000022002464EA1002003F016F8284603F0FA
:100B200061FD064656B10DB9012000E002200246E3
:100B30004EA1002003F008F83046B2E73DB9534813
:100B400007604FF403715248FFF719FE06E0514861
:100B500007604FF403715048FFF711FE48F6027129
:100B6000204600F0C1FC064656B10DB9012000E058
:100B70000220024649A1002002F0E6FF304690E73D
:100B8000204600F0E3FF0646204600F010FE8146B6
:100B900000900EB94BA000E04BA003460DB9012018
:100BA00000E0022002464AA1002002F0CDFF3046BC
:100BB00077E700008C0F0020B40F00205B43414E0C
:100BC00025645D20496E697420626567696E2C201A
:100BD000535953434C4B3D256C752048434C4B3D7A
:100BE000256C752050434C4B313D256C752050438E
:100BF0004C4B323D256C750A000000005B43414EB2
:100C000025645D2054696D696E672063616C6320A3
:100C10004641494C45440A000064004000680040D9
:100C20005B43414E25645D2048414C5F43414E5F2C
:100C3000496E6974204641494C45442C20457272E6
:100C40006F72436F64653D30782530386C580A0008
:100C50005B43414E25645D2048414C5F43414E5FFC
:100C6000496E6974204F4B0A000000005B43414EFF
:100C700025645D20436F6E66696746696C746572B2
:100C8000204641494C45440A00000000080000206D
:100C9000AC0600200C000020B80800205B43414E49
:100CA00025645D2041637469766174654E6F746973
:100CB0006669636174696F6E204641494C45440A18
:100CC000000000004F4B00004641494C45440000E5
:100CD0005B43414E25645D2053746172742025731B
:100CE0002C2073746174653D25640A000146072950
:100CF00013D2DFE801F00406080A0C0E100008A069
:100D0000704708A0FCE70AA0FAE70BA0F8E70CA0E0
:100D1000F6E70EA0F4E710A0F2E711A0F0E700005C
:100D20004F4B0000537475666645727200000000F8
:100D3000466F726D4572720041636B4572720000BE
:100D400042697452656345727200000042697444DE
:100D50006F6D45727200000043726345727200004D
:100D6000556E6B6E6F776E0070B504460D460CB90C
:100D7000044800E0044806462946304603F0F5FCE6
:100D800070BD0000AC060020B80800202DE9F04737
:100D900088B006460D460EB9464800E0464807466C
:100DA000182102A8FFF7EBFC0EB1012000E00020A3
:100DB00004460EB9012000E00220824615B1687990
:100DC000082808D952463DA1002002F0BDFE0120AE
:100DD00008B0BDE8F087384600F0FEFC00BB01F02B
:100DE00065F981463D4850F82400401C3B4941F8D4
:100DF00024003B4850F82400A9EB0000B0F57A7FAE
:100E00000CD3374840F824903868806800903868E0
:100E1000836952463349002002F096FE0220D7E74C
:100E2000287930B9002004902888C0F30A00029085
:100E300005E004200490286820F060400390002022
:100E400005906879069000208DF81C0001ABAA1D62
:100E500002A9384600F05DFB8046B8F1000F07D1CB
:100E6000214850F82400401C1F4941F824001EE08E
:100E70001A4850F82400401C184941F8240001F099
:100E800015F98146164850F82400A9EB0000B0F58A
:100E90007A7F0BD3124840F824903868806900901C
:100EA000524612A100202B6802F04EFE00BF4046C1
:100EB0008EE700008C0F0020B40F00205B43414EF2
:100EC00025645D2053656E643A20696E76616C69B5
:100ED0006420706172616D0A00000000180000203B
:100EE0002000002070560008100000205B43414E97
:100EF00025645D2054582069643D3078256C582065
:100F00004641494C2C204553523D30782530386CB1
:100F1000580A000000BFFEE77047000070B503F0FC
:100F2000A5FA054672B60448846800200249886024
:100F300005B962B6204670BDCC00002001480068AB
:100F4000704700000400002070B50221114801F034
:100F50009FF8012800D100E00020044604210D483C
:100F600001F096F8012800D100E00020054645EA8E
:100F70004400094908700020486088600120087317
:100F80004873002008750877886108610349087074
:100F900070BD000000100140CC00002000000020C7
:100FA0002DE9F04701F082F805460221504801F092
:100FB0006FF8012800D100E00020804604214C4851
:100FC00001F066F8012800D100E00020814649EADE
:100FD0004800C7B24748007847EA800046490C5CA1
:100FE000261104F00F0043490870012E17D1434821
:100FF0000078401C40B241490870084690F9000052
:10100000042826DB002008703A484068401C394913
:1010100048600846806840F00100886019E0022EB0
:1010200017D136480078401E40B23449087008464F
:1010300090F9000010F1040F0BDC002008702D481F
:101040004068401E2B4948600846806840F0020016
:1010500088600121264801F01BF8012800D100E03A
:10106000002004462348007BA04202D0214804739C
:10107000056120480069281A14281DD31D48407BAB
:10108000A04219D01B4844733CB901201949087586
:1010900008468561002008770EE01648007D01288B
:1010A0000AD10020134908750846007F20B9084678
:1010B000806840F0040088600E48007D012810D14F
:1010C0000C48007F68B90B488069281AB0F5487F42
:1010D00007D30120074908770846806840F00800D8
:1010E000886007480068401C05490860BDE8F08733
:1010F00000100140CC0000203C53000800000020FC
:101100000400002070B500F0D1FF04460121104812
:1011100000F0BEFF012800D100E00020054603F0EA
:10112000A5F9064672B60B480573457304610020A5
:10113000084908750846846100200877886006B968
:1011400062B623462A4604A1002002F0FDFC70BDD1
:1011500000100140CC0000205B454331315D20523E
:10116000657365744B657953746174653A20726177
:10117000773D2564206E6F773D256C750A00000071
:1011800072B600BFFEE700002DE9F84F074688461B
:1011900016469A46202E01D37F2E00D93F2607F10E
:1011A0000C00F02804DC08F11000B0F58C7F01DDA4
:1011B000BDE8F88FA6F1200000F0FF0900243BE015
:1011C00009EB4900224901EB4000025D0020054681
:1011D0002EE04FF0010C0CFA05FC0CEA020CBCF1FD
:1011E000000F01D0D44601E0DDF828C0634600219D
:1011F00019E001EB450B0BEB4B0B4FEA8B0B0BEBA9
:10120000440C002009E00CEB000BDFF848E02EF85E
:101210001B3000F1010B0BF0FF000228F3DB01F1A2
:10122000010C0CF0FF010229E3DB681CC0B205468B
:10123000082DCEDB601CC4B2062CC1DB0548102390
:101240000C2241460090384602F016F800BFAFE786
:101250004C5300082C0500202DE9F84305460E46A6
:1012600014461F46DDF8208010E005F10C00F02840
:1012700000DD0EE0CDF8008022783B46314628465E
:10128000FFF782FF05F10C0085B2641C207800286E
:10129000EBD100BFBDE8F88370B505460C4602F0FF
:1012A000E9FB22460BA1002002F04EFC4021114830
:1012B000FFF765FAFFF748FE0E48056080F820400A
:1012C00000200C49C863012081F8390000F086F83D
:1012D00070BD00005B4755495D204D656E75204926
:1012E0006E69742C20726F6F745F636F756E743DDE
:1012F00025640A00EC0400207CB5FFF70FFE0446CD
:1013000084B12148C06B204991F838202831895C8C
:10131000CDE900101C4890F8383022461BA100206F
:1013200002F012FC1848C06B90B100251648C06B43
:10133000406828B11448C06B41682046884705467C
:101340002DB11FA1002002F0FFFB03F0BFFA7CBD0E
:1013500004F0010008B103F057FB04F0020008B1EB
:1013600003F0A8FB04F0040008B103F0E7FA04F06E
:10137000080008B103F0AAFA034890F8390008B150
:1013800000F02CF800BFE2E7EC0400205B47554971
:101390005D206576656E74733D30782530326C580B
:1013A0002064657074683D256420637572736F7284
:1013B0003D256420706167653D25700A00000000CE
:1013C0005B4755495D207061676520726571756581
:1013D0007374656420657869740A00002DE9F84F1C
:1013E0003A4890F8384050F82470203010F80480C3
:1013F000083010F804B0083010F804A0002002F003
:1014000018F81CB932A003F090F90BE0611E2F4AC6
:1014100052F821302832515C01EB810153F8210050
:1014200003F083F9B8F1050F01DA404600E005202A
:101430008146002625E00AEB0600C5B2454500DBE3
:1014400021E005EB850007EB8000406840B105EB2B
:10145000850007EB8000007A002801DD012000E014
:10146000002003465D4501D1012000E00020024636
:1014700005EB850057F82010304603F0DBF8701CB0
:10148000C6B24E45D7DB00BFB9F1050F13DA09EB41
:10149000490000EBC900242101EB8005C5F58C70E3
:1014A00086B2002E06DD00203346F0222946009049
:1014B00001F092FF00BF05225146404603F008F9B3
:1014C0000020024981F83900BDE8F88FEC040020C3
:1014D0004D61696E204D656E7500000010B50446C3
:1014E000204603F022F910BD10B5024692F82030D4
:1014F000012B01D0022B06D1106840690843146803
:101500006061002010BD506A40F4802050620120CC
:10151000F8E7F0B504460D461E4694F820702068A2
:101520008368A86800B900E000BF012F01D0022F36
:101530007DD103F0806030B903F0006018B903F08A
:10154000805000287ED0C3F30161012088403060C4
:10155000A86860B9B5F800C0E86840EA4C5C20684B
:1015600000F5C07000EB0110C0F800C00FE0D5E935
:1015700001C040EACC00D5F80CC040EA0C00D4F819
:1015800000C00CF5C07C0CEB011CCCF80000D5F8B9
:1015900010C0206800F5C07000EB0110C0F804C056
:1015A000287D01280ED1206800F5C07000EB0110E5
:1015B000406840F4807C206800F5C07000EB0110AA
:1015C000C0F804C0D079000692F806C040EA0C408A
:1015D00092F805C040EA0C2092F804C040EA0C00E2
:1015E000D4F800C00CF5C07C0CEB011CCCF80C004E
:1015F000D078000692F802C040EA0C4092F801C090
:1016000040EA0C2092F800C040EA0C00D4F800C078
:101610000CF5C07C0CEB011CCCF80800206800F530
:10162000C07000EB0110006840F0010C01E00FE019
:1016300008E0206800F5C07000EB0110C0F800C0A1
:101640000020F0BD606A40F4001060620120F8E7FD
:10165000606A40F4802060620120F2E7F0B5044641
:101660000A46216894F82050012D01D0022D7ED128
:10167000424901F50071086840F0010008600868FF
:1016800020F47C5008600868566A40EA062008602A
:10169000107D00F01F06012000FA06F3C869984388
:1016A000C861A1F50071D069C8B9D1F80C0298439E
:1016B000C1F80C02908880B2968940EA064601F58E
:1016C0001070576940F83760108880B2168940EA78
:1016D000064601F51070576900EBC7004660D069F7
:1016E000012819D1D1F80C021843C1F80C029088D6
:1016F00080B2168840EA064601F51070576940F836
:101700003760908980B2168940EA064601F510706C
:10171000576900EBC7004660906928B9D1F8040208
:101720009843C1F8040204E0D1F804021843C1F858
:101730000402106928B9D1F814029843C1F81402C0
:1017400004E0D1F814021843C1F81402106A012809
:1017500004D1D1F81C021843C1F81C02D1F80002D0
:1017600020F00100C1F800020020F0BDFFE7606A30
:1017700040F4802060620120F7E700000064004030
:1017800010B504460CB9012010BD204600F00DFA3A
:10179000204600F0F7F82068006840F40040216817
:1017A00008600020606284F8200000BFECE701467A
:1017B00091F82000012801D002280CD10A68526853
:1017C00002F002020AB1042005E00A68126802F081
:1017D000020202B1032070470146002091F8202048
:1017E000012A01D0022A11D10B689B6803F08063A3
:1017F00003B1401C0B689B6803F0006303B1401CFD
:101800000B689B6803F0805303B1401C704770B5B0
:1018100004460CB9012070BD94F8200010B9204690
:1018200000F0F4F82068006840F0010021680860CA
:1018300000F03CFC05460DE000F038FC401B0A2897
:1018400008D9606A40F400306062052084F8200006
:101850000120E0E72068406800F001000028EBD09C
:101860002068006820F002002168086000F01EFC7B
:1018700005460DE000F01AFC401B0A2808D9606AF2
:1018800040F400306062052084F820000120C2E7A7
:101890002068406800F002000028EBD1207E01287B
:1018A00006D12068006840F080002168086005E0EB
:1018B0002068006820F0800021680860607E0128B0
:1018C00006D12068006840F040002168086005E00B
:1018D0002068006820F0400021680860A07E012890
:1018E00006D12068006840F020002168086005E00B
:1018F0002068006820F0200021680860E07E012850
:1019000006D12068006820F010002168086005E01A
:101910002068006840F0100021680860207F0128DE
:1019200006D12068006840F008002168086005E0E2
:101930002068006820F0080021680860607F0128A6
:1019400006D12068006840F004002168086005E0C6
:101950002068006820F0040021680860D4E90201D2
:10196000084321690843616908436168491E0843C7
:101970002168C86100206062012084F820000020F6
:1019800049E7000010B504461A492068884213D17F
:1019900019480068401E184908600846006828B9C0
:1019A0001648C06920F000701449C8614FF4C05156
:1019B000134800F043F91CE012492068884218D10E
:1019C0000E48C06920F080600C49C8610A48006870
:1019D000401E094908600846006828B90748C069E0
:1019E00020F000700549C8614FF44051064800F0EE
:1019F00025F910BD00640040B8000020001002402E
:101A00000008014000680040000C014010B586B09D
:101A100004460020029003900490059045492068F8
:101A2000884239D144480068401C43490860084650
:101A3000006801280DD100BF4048C06940F0007027
:101A40003E49C8610846C06900F00070019000BFBF
:101A500000BF00BF3948806940F004003749886101
:101A60000846806900F00400019000BF00BFC81460
:101A7000029000200390049002A9314800F078F908
:101A80004FF480500290022003900320059002A999
:101A90002B4800F06DF94AE02A492068884246D177
:101AA00000BF2648C06940F080602449C8610846EC
:101AB000C06900F08060019000BF00BF1E48006850
:101AC000401C1D4908600846006801280DD100BF70
:101AD0001A48C06940F000701849C8610846C069DA
:101AE00000F00070019000BF00BF00BF1348806984
:101AF00040F00800114988610846806900F008003C
:101B0000019000BF00BF8814029000200390049051
:101B100002A90D4800F02CF94FF400500290022069
:101B200003900320059002A9074800F021F906B0B0
:101B300010BD000000640040B8000020001002400A
:101B40000008014000680040000C014070B50446E8
:101B500094F82000012822D1022084F82000206877
:101B6000006820F001002168086000F09FFA054637
:101B70000DE000F09BFA401B0A2808D9606A40F487
:101B800000306062052084F82000012070BD2068CC
:101B9000406800F001000028EBD16062F6E7606A5F
:101BA00040F4002060620120F0E770B5044694F82C
:101BB0002000022828D12068006840F00100216838
:101BC000086000F073FA05460DE000F06FFA401B64
:101BD0000A2808D9606A40F400306062052084F861
:101BE0002000012070BD2068406800F0010000283E
:101BF000EBD02068006820F0020021680860012016
:101C000084F820000020EDE7606A40F480106062F4
:101C10000120E7E770B5044600F048FA064625467D
:101C2000681C10B104480078054400BF00F03EFA7B
:101C3000801BA842FAD370BDC40000202DE9F041FA
:101C400002460B46002080E00127874007EA030197
:101C5000002979D0404F4FEA900C57F82C40870765
:101C60004FEA177C0F2707FA0CF73C403B4FBA426C
:101C700001D100270FE03A4FBA4201D101270AE013
:101C8000384FBA4201D1022705E0374FBA4201D19D
:101C9000032700E004274FEA807C4FEA1C7C07FA08
:101CA0000CF7A74231D1314F3F688F43DFF8BCC0FA
:101CB000CCF800700CF104073F688F430CF1040C62
:101CC000CCF80070294F0C373F688F43DFF89CC079
:101CD0000CF10C0CCCF80070ACF104073F688F439A
:101CE000ACF1040CCCF8007087074FEA177C0F2783
:101CF00007FA0CF4184F4FEA900C57F82CC02CEA56
:101D0000040C4FEA900847F828C0FF2901D817466D
:101D100000E0171D3D46FF2901D8870002E0A0F131
:101D20000807BF003E462F684FF00F0C0CFA06FC68
:101D300027EA0C074FF0040C0CFA06FC47EA0C07E4
:101D40002F60D7688F43D760401C23FA00F7002F1D
:101D50007FF47AAFBDE8F08108000140000801403F
:101D6000000C01400010014000140140000401403B
:101D70002DE9F8470346002294466EE14FF0010832
:101D800008FA02F4D1F8008008EA0400A0427DD1EC
:101D9000DFF8DCA2D1F80480A8EB0A09D0453AD0DC
:101DA00014DCB8F1030F50D009DCB8F1000F31D0CA
:101DB000B8F1010F1CD0B8F1020F49D120E0B8F101
:101DC000110F18D0B8F1120F42D11EE0B9F5881FDB
:101DD00025D006DCB9F5803F20D0B9F5801F37D17A
:101DE0001AE0B9F5001F18D0B9F5041F30D117E07B
:101DF000D1F80CC02DE0D1F80C8008F1040C28E0DB
:101E0000D1F80C8008F1080C23E0D1F80C8008F11F
:101E10000C0C1EE000BF00BF00BF00BF00BF00BF32
:101E2000D1F80880B8F1000F02D14FF0040C0BE09C
:101E3000D1F80880B8F1010F03D14FF0080C1C61F4
:101E400002E04FF0080C5C6103E04FF0000C00E092
:101E500000BF00BFFF2801D8984601E003F1040845
:101E60004646FF2802D84FEA820803E0A2F108089C
:101E70004FEA88084746D6F800804FF00F0909FA64
:101E800007F928EA09080CFA07F900E088E048EAAF
:101E90000908C6F80080D1F8048008F08058B8F12D
:101EA000805F7DD100BFDFF8CC81D8F8188048F082
:101EB0000108DFF8C091C9F81880C846D8F8188022
:101EC00008F00108CDF8008000BF00BF4FEAB93824
:101ED0004FEA920958F829504FEA82784FEA187968
:101EE0004FF00F0808FA09F825EA0805DFF888819D
:101EF000434502D14FF0000816E0DFF880814345EA
:101F000002D14FF001080FE0DFF87481434502D1A0
:101F10004FF0020808E0DFF86C81434502D14FF032
:101F2000030801E04FF004084FEA82794FEA19797B
:101F300008FA09F848EA0505DFF84C814FEA9209EA
:101F400048F82950D1F8048008F48018B8F5801FAB
:101F50000AD1DFF83881D8F8008048EA0008DFF8B5
:101F60002C91C9F8008009E0DFF82081D8F80080C2
:101F700028EA0008DFF81491C9F80080D1F804803D
:101F800008F40018B8F5001F10D1DFF8008108F13F
:101F90000408D8F8008048EA0008DFF8F09000E074
:101FA0005AE009F10409C9F800800DE0DFF8DC808F
:101FB00008F10408D8F8008028EA0008DFF8CC907F
:101FC00009F10409C9F80080D1F8048008F4003848
:101FD000B8F5003F0ED1DFF8B480A8F10408D8F8B6
:101FE000008048EA0008DFF8A490A9F10409C9F8C4
:101FF00000800DE0DFF89480A8F10408D8F8008094
:1020000028EA0008DFF88490A9F10409C9F80080E3
:10201000D1F8048008F48038B8F5803F0ED1DFF89D
:102020006C80A8F10808D8F8008048EA0008DFF8BA
:102030005C90A9F10809C9F800800DE0DFF84C8038
:10204000A8F10808D8F8008028EA0008DFF83C90DA
:10205000A9F10809C9F80080521CD1F8008028FABB
:1020600002F8B8F1000F7FF489AEBDE8F8870000F0
:10207000000011100010024000080140000C014057
:102080000010014000140140080001400804014014
:10209000024693680B400BB1012000E0002070471E
:1020A0000AB1016101E00B04036170470148006857
:1020B00070470000BC00002003480068034909780D
:1020C0000844014908607047BC000020C40000209B
:1020D00010B50848006840F0100006490860032069
:1020E00000F0A8F80F2000F007F800F02BF800200F
:1020F00010BD00000020024070B504460E48007874
:102100004FF47A71B1FBF0F00C490968B1FBF0F5BE
:10211000284600F03AFE08B1012070BD102C07D20D
:1021200000222146501E00F047F80548046001E0F7
:102130000120F2E70020F0E7C4000020C8000020E2
:10214000C000002008B500BF1148806940F00100C0
:102150000F4988610846806900F00100009000BFC7
:1021600000BF00BF0846C06940F08050C861084603
:10217000C06900F08050009000BF00BF00BF05495B
:10218000486820F0E06000BF486000BF08BD000064
:10219000001002400000014001460846002809DB0B
:1021A00000F01F0301229A4043099B0003F1E02342
:1021B000C3F8002100BF70472DE9F05F80460D464F
:1021C0001646002702F036F9074639462A463346B6
:1021D00001F00700C0F1070ABAF1040F02D94FF06D
:1021E000040A01E0C0F1070AD14600F1040ABAF17D
:1021F000070F02D24FF0000A01E0A0F1030AD44613
:102200004FF0010A0AFA09FAAAF1010A0AEA020AD7
:102210000AFA0CFA4FF0010B0BFA0CFBABF1010BB5
:102220000BEA030B4AEA0B042146404602F00AF986
:10223000BDE8F09F00BF00F00702064B19684FF69B
:10224000FF031940044B0B4343EA0221014B196081
:1022500000BF70470CED00E00000FA0570B50446C1
:102260000D460CB9012070BD5A48006800F0070007
:10227000A8420ED25748006820F00700284355496D
:1022800008600846006800F00700A84201D001205D
:10229000E9E7207800F0020002281DD1207800F044
:1022A0000400042805D14C48406840F4E0604A49E5
:1022B0004860207800F00800082805D146484068AA
:1022C00040F46050444948604348406820F0F000C2
:1022D000A168084340494860207800F0010078B3C5
:1022E0006068012806D13C48006800F4003090B9CD
:1022F0000120B8E76068022806D13748006800F07E
:10230000007040B90120AEE73348006800F00200D9
:1023100008B90120A7E73048406820F00300616851
:1023200008432D494860FFF7C1FE064609E0FFF764
:10233000BDFE801B41F28831884202D9032092E71A
:1023400007E02548406800F00C006168B0EB810FA1
:10235000EDD12048006800F00700A8420ED91D48C2
:10236000006820F0070028431A4908600846006802
:1023700000F00700A84201D0012074E7207800F0A7
:102380000400042807D11448406820F4E060E168A4
:10239000084311494860207800F00800082808D157
:1023A0000D48406820F46050216940EAC1000A49A4
:1023B000486000F03FF808494968C1F30311074A33
:1023C000515CC8400649086006480068FFF794FE63
:1023D000002048E70020024000100240DA550008C3
:1023E000C8000020C00000200148006870470000BD
:1023F000C800002000B5FFF7F7FF04494968C1F3A2
:102400000221034A515CC84000BD00000010024098
:10241000EA55000800B5FFF7E7FF04494968C1F332
:10242000C221034A515CC84000BD000000100240B8
:10243000EA5500082DE9FE4F4FF00009CB46CA4689
:10244000002400200290019000902F48D0F80490C2
:1024500009F00C0000284FD0042802D008284AD1E7
:1024600002E02A4802904AE02948C9F38341445CCB
:1024700009F48030C0B32448C06A00F00F00254939
:1024800011F800B02048C06A00F4803008B31E483C
:10249000C06AC0F30310401C01901B48C06AC0F31F
:1024A0000320801C00900198A0FB0B5006461749A2
:1024B0000098A1FB00120023A1FB047C02FB04C2D4
:1024C00001FB03212A4633463846FDF7BDFE82460E
:1024D00003E00E486043B0FBFBFA0D48407BA0428E
:1024E00006D14FEA5A0A03E0FFE70B4804FB00FA63
:1024F000CDF808A003E000BF0448029000BF00BF71
:102500000298BDE8FE8F00000010024000127A0021
:10251000BC550008CA55000800093D00F8B504463E
:102520000CB90120F8BD207800F00100002878D017
:10253000FD48406800F00C0004280CD0FA484068C0
:1025400000F00C00082811D1F748406800F48030F2
:10255000B0F5803F0AD1F448006800F4003000284C
:102560005FD0A06800285CD10120DBE700BFA06835
:10257000B0F5803F06D1EC48006840F48030EA496D
:10258000086028E0A06858B9E748006820F4803067
:10259000E54908600846006820F4802008601AE0D9
:1025A000A068B0F5A02F0BD1DF48006840F4802070
:1025B000DD4908600846006840F4803008600AE0A1
:1025C000D948006820F48030D74908600846006880
:1025D00020F48020086000BFA06888B1FFF766FD86
:1025E000054606E0FFF762FD401B642801D9032081
:1025F00098E7CD48006800F400300028F2D010E0E1
:10260000FFF754FD054606E0FFF750FD401B642828
:1026100001D9032086E7C448006800F40030002890
:10262000F2D1207800F00200022857D1BE4840685D
:1026300000F00C0050B1BC48406800F00C000828C5
:1026400018D1B948406800F4803098B9B64800689D
:1026500000F0020020B16069012801D0012061E78B
:10266000B148006820F0F800A16940EAC100AE4915
:10267000086033E06069E8B10120AC490860FFF709
:1026800015FD054606E0FFF711FD401B022801D9A4
:10269000032047E7A448006800F002000028F2D0B9
:1026A000A148006820F0F800A16940EAC1009E49F5
:1026B000086013E000209D490860FFF7F7FC05461D
:1026C00006E0FFF7F3FC401B022801D9032029E7AD
:1026D0009548006800F002000028F2D1207800F050
:1026E000080008282DD1E069B8B1012090490860A0
:1026F000FFF7DCFC054606E0FFF7D8FC401B02288C
:1027000001D903200EE78848406A00F00200002843
:10271000F2D0012001F09AF913E00020844908600A
:10272000FFF7C4FC054606E0FFF7C0FC401B02288B
:1027300001D90320F6E67C48406A00F00200002838
:10274000F2D1207800F00400042873D100277648E5
:10275000C06900F0805070B900BF7348C06940F094
:1027600080507149C8610846C06900F080500090EF
:1027700000BF00BF01276F48006800F48070B0B947
:102780006C48006840F480706A490860FFF78EFC6E
:10279000054606E0FFF78AFC401B642801D90320A8
:1027A000C0E66448006800F480700028F2D000BFE2
:1027B0002069012806D15C48006A40F001005A49AE
:1027C000086227E0206958B95748006A20F00100E4
:1027D000554908620846006A20F00400086219E0C2
:1027E000206905280BD15048006A40F004004E498A
:1027F00008620846006A40F0010008620AE04A48A0
:10280000006A20F00100484908620846006A20F08A
:102810000400086200BF2069A0B1FFF747FC05462D
:1028200009E0FFF743FC401B41F28831884202D99E
:10283000032077E622E03C48006A00F0020000280E
:10284000EFD012E0FFF732FC054608E0FFF72EFC60
:10285000401B41F28831884201D9032062E63248A8
:10286000006A00F002000028F0D1012F05D12E48A7
:10287000C06920F080502C49C86100BFE06AA0B355
:102880002948406800F48030B0F5803F0ED12648DA
:10289000406800F00C00082808D12348C06A00F402
:1028A0008030B0F5803F01D101203BE6E06A02288C
:1028B00050D11D48006800F0805040B11A48C06AED
:1028C00000F0F001606B814201D001202AE6002077
:1028D00016498866FFF7EAFB054607E0FFF7E6FBC7
:1028E000401B642802D903201CE64DE00E48006816
:1028F00000F000600028F1D10B48C06A20F0F00021
:10290000616B08430849C8620846C06A20F47060D9
:10291000216B08430449C862012004498866FFF717
:10292000C5FB05460FE000000010024000004242D7
:102930008004424200700040FFF7B8FB401B64284F
:1029400001D90320EEE54E48006800F00060002841
:10295000F2D019E04A48C06A20F480304849C86281
:10296000002048498866FFF7A1FB054606E0FFF70F
:102970009DFB401B642801D90320D3E54048006833
:1029800000F000600028F2D1206AE0B33C484068C3
:1029900000F00C0008285ED0206A022846D10020F2
:1029A00038490866FFF782FB054606E0FFF77EFB25
:1029B000401B022801D90320B4E53148006800F02B
:1029C00000700028F2D1606AB0F5803F0DD12C482C
:1029D000C06A616808432A49C8620846C06A20F094
:1029E0000F00E16808432649C862D4E90901084399
:1029F0002349496821F474110843214948600120A2
:102A00002049086600E038E0FFF750FB054606E085
:102A1000FFF74CFB401B022801D9032082E5184830
:102A2000006800F000700028F2D026E00020154970
:102A30000866FFF73BFB054606E0FFF737FB401B48
:102A4000022801D903206DE50D48006800F00070F0
:102A50000028F2D111E0206A012800D162E508487F
:102A6000466806F48031606A814204D106F4701130
:102A7000A06A814201D0012054E5002052E5000007
:102A8000001002400000424210B504460CB901207B
:102A900010BD606A38B96068B0F5827F00D105E08A
:102AA0000021E16102E00021216161610021A16258
:102AB00094F8510028B9002084F85000204600F016
:102AC00043F8022084F851002068006820F040009C
:102AD00021680860A08800F48270218901F4044113
:102AE0000843A18901F400610843217C01F002013F
:102AF0000843217D01F001010843218B01F400719D
:102B00000843217F01F0380108432021095D01F0CD
:102B100080010843218D01F40051084321680860B9
:102B20000421A06901EA1040216848602068C0695A
:102B300020F400602168C86100206065012084F8ED
:102B400051000020A4E7000010B586B00446002024
:102B500002900390049005901949206888422DD175
:102B600000BF1848806940F48050164988610846C3
:102B7000806900F48050019000BF00BF00BF08468C
:102B8000806940F0040088610846806900F0040014
:102B9000019000BF00BFA0200290022003900320FC
:102BA000059002A90848FFF7E3F8402002900020B2
:102BB0000390049002A90448FFF7DAF806B010BDAC
:102BC0000030014000100240000801402DE9F843A8
:102BD00004460F4616461D46FFF768FA8046B14682
:102BE00094F85100012802D00220BDE8F88307B113
:102BF0000EB90120F9E700BF94F85000012801D177
:102C00000220F2E7012084F8500000BF032084F87E
:102C10005100002060652763A686E686A063A08732
:102C2000E08760642064A068B0F5004F0BD1206895
:102C3000006820F04000216808602068006840F4C7
:102C40008040216808602068006800F0400040284B
:102C500005D02068006840F0400021680860E06806
:102C6000B0F5006F37D1606810B1B9F1010F09D12B
:102C7000206B00882168C860206B801C2063E08E78
:102C8000401EE08623E02068806800F002000228F1
:102C90000AD1206B00882168C860206B801C2063EB
:102CA000E08E401EE08612E0FFF700FAA0EB08007D
:102CB000A84201D3681C00B94DB9012084F8510025
:102CC00000BF002084F8500000BF03208DE7E08E95
:102CD0000028D8D136E0606810B1B9F1010F09D1F0
:102CE000206B007821680873206B401C2063E08E05
:102CF000401EE08623E02068806800F00200022881
:102D00000AD1206B007821680873206B401C206377
:102D1000E08E401EE08612E0FFF7C8F9A0EB080045
:102D2000A84201D3681C00B94DB9012084F85100B4
:102D300000BF002084F8500000BF032055E7E08E5C
:102D40000028D8D142462946204601F013F808B1A0
:102D500020206065A06850B900BF00200090206866
:102D6000C068009020688068009000BF00BF01200C
:102D700084F8510000BF002084F8500000BF606D4F
:102D800008B1012031E700202FE770B50446254641
:102D9000681EB0F1807F01D301200FE0681E4FF064
:102DA000E02148610F214FF0FF3001F04BFB002084
:102DB0004FF0E021886107200861002070BD704756
:102DC0007047000030B502460B4600BF92F83C0049
:102DD000012801D1022030BD012082F83C0000BF53
:102DE000022082F83D00106844681068816824F071
:102DF00070041868044310684460124D1068A842BB
:102E00000FD01068B0F1804F0BD00F4D1068A84262
:102E100007D00E4D1068A84203D00D4D1068A8428F
:102E200005D121F0800158680143106881600120BC
:102E300082F83D0000BF002082F83C0000BF00BFC8
:102E4000C9E70000002C01400004004000080040D9
:102E5000000C004010B504460CB9012010BD94F8D8
:102E60003D0028B9002084F83C00204600F026F8F8
:102E7000022084F83D00211D206801F05DF801204A
:102E800084F8460000BF84F83E0001213F20015530
:102E9000402001554120015500BF00BF012084F8AA
:102EA000420043200155442001554520015500BFF3
:102EB000012084F83D000020D0E7000038B504462A
:102EC0001A492068884216D100BF1948C06940F0ED
:102ED00010001749C8610846C06900F01000009052
:102EE00000BF00BF002211463620FFF765F93620EB
:102EF000FFF752F919E00F492068884215D100BF49
:102F00000B48C06940F020000949C8610846C06903
:102F100000F02000009000BF00BF002211463720C3
:102F2000FFF74AF93720FFF737F938BD00100040A6
:102F30000010024000140040014691F83D000128B5
:102F400001D001207047022081F83D000868C06868
:102F500040F001000B68D860144B086898420FD00D
:102F60000868B0F1804F0BD0114B0868984207D029
:102F7000104B0868984203D00F4B086898420CD158
:102F80000868806800F00702062A0CD0086800680C
:102F900040F001000B68186005E00868006840F028
:102FA00001000B6818600020CCE70000002C0140F5
:102FB0000004004000080040000C0040704770B55D
:102FC00004462068C5682068066906F002000228E9
:102FD00019D105F00200022815D1401F21680861AF
:102FE000012020772068806900F0030018B1204696
:102FF000FFF7E4FF05E0204600F097F8204600F0D8
:1030000095F80020207706F00400042819D105F077
:103010000400042815D1C0432168086102202077EC
:103020002068806900F4407018B12046FFF7C6FFA1
:1030300005E0204600F079F8204600F077F80020FF
:10304000207706F00800082819D105F008000828A4
:1030500015D1C04321680861042020772068C06929
:1030600000F0030018B12046FFF7A8FF05E0204656
:1030700000F05BF8204600F059F80020207706F0B9
:103080001000102819D105F01000102815D1C043E8
:1030900021680861082020772068C06900F440702A
:1030A00018B12046FFF78AFF05E0204600F03DF802
:1030B000204600F03BF80020207706F0010048B1E0
:1030C00005F0010030B16FF0010021680861204671
:1030D00000F02EF806F08000802809D105F080006D
:1030E000802805D1C043216808612046FFF767FEAC
:1030F00006F04000402809D105F04000402805D1E5
:10310000C04321680861204600F02AF806F020003C
:10311000202809D105F02000202805D1C0432168CE
:1031200008612046FFF74CFE70BD704770470000F5
:1031300010B5044607492068884202D1FDF730FFE8
:1031400006E005492068884202D101200349087041
:1031500010BD0000001000400014004030000020AE
:10316000704710B504460CB9012010BDA06900B12C
:1031700000E000BF94F8410028B9002084F8400026
:10318000204600F029F8242084F841002068C06817
:1031900020F400502168C860204600F017FF206826
:1031A000006920F49040216808612068406920F09F
:1031B0002A00216848612068C06840F400502168F6
:1031C000C86000206064202084F8410084F8420038
:1031D0000020606300BFC8E710B586B00446002039
:1031E00002900390049005901A49206888422ED1DD
:1031F00000BF1948806940F480401749886108463B
:10320000806900F48040019000BF00BF00BF084605
:10321000806940F0040088610846806900F004007D
:10322000019000BF00BF48150290022003900320C8
:10323000059002A90948FEF79BFD4FF480600290BB
:1032400000200390049002A90448FEF791FD06B007
:1032500010BD00000038014000100240000801408D
:1032600000BFFEE710B5012202210248FEF718FF59
:1032700010BD0000000C01402DE9F84F07468846BC
:1032800091469A46DDF828B009FB0AF00090F02F2D
:1032900005D2B8F58C7F02D2BBF1000F01D1BDE899
:1032A000F88F08EB0A00401E83B207EB0900401EAE
:1032B00082B24146384600F0D9F9012220211F4848
:1032C000FEF7EEFE002201211D48FEF7E9FE002573
:1032D00029E00098401BB0F5007F02D94FF4007040
:1032E00001E00098401B064600240FE028193BF837
:1032F00010000012134901F8140028191BF81000DF
:10330000012101EB44010F4A5054641CB442EDD337
:103310004FF6FF7000EA460264230A490A48FFF7A5
:1033200055FC354400BF00988542D2D30122114696
:103330000348FEF7B5FE00BFB1E7000000100140F2
:10334000000C0140EC000020DC0F00202DE9F047CC
:1033500006460D464FEA262806F0FF09002409E03C
:10336000194800F81480012000EB4400164901F8C8
:103370000090641CB4F5007FF2D301222021134891
:10338000FEF78EFE002201211148FEF789FE11E0B2
:10339000B5F5007F02D94FF4007000E028460746DB
:1033A0004FF6FF7000EA4702642307490948FFF718
:1033B0000DFCED1B002DEBD1012211460448FEF758
:1033C0006FFEBDE8F0870000EC0000200010014017
:1033D000000C0140DC0F00202DE9F04104460D46B1
:1033E00016461F46DDF81880F02C02D2B5F58C7F0A
:1033F00001D3BDE8F081A019F02802D9C4F1F00092
:1034000086B2E819B0F58C7F02D9C5F58C7087B209
:10341000E819401E83B2A019401E82B229462046F8
:1034200000F024F906FB07F14046FFF78FFF00BFCD
:10343000DFE738B504464FF48C73F02200210846CC
:103440000094FFF7C9FF38BD10B5012210210B48C9
:10345000FEF726FE0A20FEF7DDFB002210210748BA
:10346000FEF71EFE1420FEF7D5FB012210210348B3
:10347000FEF716FE7820FEF7CDFB10BD00100140D0
:1034800010B5012211460B48FEF70AFE0022022168
:103490000848FEF705FE012210210748FEF700FE4E
:1034A000FFF7D2FF00F00AF8FFF7DCFE0020FFF77D
:1034B000C0FF10BD000C01400010014010B50120FC
:1034C00000F02CF99620FEF7A5FB112000F026F95C
:1034D0007820FEF79FFB3A2000F020F9552000F0FD
:1034E0005FF90A20FEF796FB362000F017F900205E
:1034F00000F056F92A2000F011F9002000F02CF914
:10350000EF2000F029F92B2000F008F9142000F03A
:1035100023F940F22B1000F01FF9B22000F0FEF862
:103520000C2000F03DF90C2000F03AF9002000F0EA
:1035300037F9332000F034F9332000F031F9B720A7
:1035400000F0ECF8352000F02BF9BB2000F0E6F895
:10355000192000F025F9C02000F0E0F82C2000F040
:103560001FF9C22000F0DAF8012000F019F9C32099
:1035700000F0D4F8122000F013F9C42000F0CEF8C7
:10358000202000F00DF9C62000F0C8F80F2000F050
:1035900007F9D02000F0C2F8A42000F001F9A12022
:1035A00000F0FEF8E02000F0B9F8D02000F0F8F8C4
:1035B000042000F0F5F80D2000F0F2F8112000F0E2
:1035C000EFF8132000F0ECF82B2000F0E9F83F2092
:1035D00000F0E6F8542000F0E3F84C2000F0E0F8AA
:1035E000182000F0DDF80D2000F0DAF80B2000F0D4
:1035F000D7F81F2000F0D4F8232000F0D1F8E12004
:1036000000F08CF8D02000F0CBF8042000F0C8F8CF
:103610000C2000F0C5F8112000F0C2F8132000F0D3
:10362000BFF82C2000F0BCF83F2000F0B9F844208F
:1036300000F0B6F8512000F0B3F82F2000F0B0F8F9
:103640001F2000F0ADF81F2000F0AAF8202000F0A5
:10365000A7F8232000F0A4F8212000F05FF829202B
:1036600000F05CF81420FEF7D5FA10BDF8B504465A
:103670000E4615461F462A2000F050F8200A8DF805
:103680000000E0B28DF80100280A8DF80200E8B2CF
:103690008DF803000421684600F020F82B2000F08C
:1036A0003DF806F11400000A8DF8000006F1140040
:1036B000C0B28DF8010007F11400000A8DF8020075
:1036C00007F11400C0B28DF803000421684600F031
:1036D00005F82C2000F022F8F8BD000070B5044673
:1036E0000D46012220210A48FEF7DAFC00220121C2
:1036F0000848FEF7D5FCAAB2642321460648FFF726
:1037000065FA012211460348FEF7CAFC70BD0000AD
:1037100000100140000C0140DC0F002001B5002228
:1037200020210A48FEF7BCFC002201210848FEF7D0
:10373000B7FC6423012269460648FFF747FA0122D5
:1037400011460348FEF7ACFC08BD00000010014024
:10375000000C0140DC0F002038B5044620128DF823
:103760000000E0B28DF80100012220210948FEF797
:1037700097FC002201210848FEF792FC64230222F4
:1037800069460648FFF722FA012211460248FEF771
:1037900087FC38BD00100140000C0140DC0F002008
:1037A00001B5012220210A48FEF77AFC00220121FE
:1037B0000848FEF775FC6423012269460648FFF7B6
:1037C00005FA012211460348FEF76AFC08BD000015
:1037D00000100140000C0140DC0F002010B50B4828
:1037E0000B49086010204860002109488160C160D1
:1037F00001614161017641768176C1760177417739
:10380000FEF705F808B1FDF7BBFC10BD00640040F1
:103810008C0F002010B50B480B4908601020486041
:10382000002109488160C1600161416101764176F2
:103830008176C17601774177FDF7E9FF08B1FDF7A1
:103840009FFC10BD00680040B40F002000B585B09B
:103850000020019002900390049000BF30488069DE
:1038600040F010002E4988610846806900F0100081
:10387000009000BF00BF00BF0846806940F02000F4
:1038800088610846806900F02000009000BF00BFFA
:1038900000BF0846806940F00400886108468069DE
:1038A00000F00400009000BF00BF00BF0846806920
:1038B00040F0080088610846806900F00800009028
:1038C00000BF00BF002230211648FEF7E9FB0022AE
:1038D00003211548FEF7E4FB072001900020029029
:1038E0000120039001A90F48FEF742FA3020019011
:1038F00001200290002003900220049001A90948B1
:10390000FEF736FA03200190012002900020039078
:103910000220049001A90448FEF72AFA05B000BD70
:103920000010024000100140000C014010B50E488C
:103930000E4908604FF48270486000210B48816096
:10394000C160016141614FF4007181610821C16171
:1039500000210162416281620A21C162FFF794F88D
:1039600008B1FDF70DFC10BD00300140DC0F002058
:103970001CB50020009001900E480F4908604720B8
:10398000486000210C48816040F2CF71C160002185
:103990008161FFF75FFA08B1FDF7F2FB00200090AC
:1039A000019069460448FFF70DFA08B1FDF7E8FBFE
:1039B0001CBD000000100040341000201CB5002089
:1039C000009001900E480F49086047204860002190
:1039D0000C48816044F61F61C16000218161FFF7DE
:1039E00039FA08B1FDF7CCFB002000900190694640
:1039F0000448FFF7E7F908B1FDF7C2FB1CBD000062
:103A0000001400407C10002010B50B480B490860E2
:103A10004FF4E1304860002108488160C1600161D5
:103A20000C21416100218161C161FFF79AFB08B15E
:103A3000FDF7A6FB10BD000000380140C4100020B7
:103A400000BFFEE700BFFEE77047000008B5084969
:103A50000968C9084FF47A72B1FBF2F14143009151
:103A600000BF00BF00994A1E00920029F9D108BD8D
:103A7000C800002010B500F029FB10BD2DE9F04171
:103A800004460D46164600BF0D48007808B900F000
:103A90001DFB00BFEFF311800746202080F3118843
:103AA00000BF00BF32462946204600F00BF8804692
:103AB000F8B280F3118800BF00BF4046BDE8F08136
:103AC000C40A00202DE9F047074688461646C2463C
:103AD00007EB47011B4800EBC109D9F8140020B1DE
:103AE000012811D0022826D11EE0484600F026FB0E
:103AF0000546B54201D2002405E03446324651461F
:103B0000484600F070FC18E0484600F017FB0546F8
:103B1000B54201D2284600E03046044622465146CE
:103B2000484600F060FC08E032465146484600F046
:103B300021FC044601E0002400BF00BF2046BDE890
:103B4000F0870000DC0A00200FB438B5044606A850
:103B500000906A462046059900F007F805460020C7
:103B60000090284638BC5DF814FB2DE9F04F99B061
:103B700082460D46144603A814904020159000205C
:103B80001690CDF860A0179000BF2E786D1C06B976
:103B9000DDE0252E79D100274FF0010900BF2E78F6
:103BA000232E12D02B2E0CD02D2E02D0302E10D141
:103BB00003E047F001076D1C0EE047F002076D1CA3
:103BC0000AE047F004076D1C06E047F008076D1C8B
:103BD00002E04FF0000900BF00BFB9F1000FDED1D5
:103BE0004FF0000800BF2E78302E01DB392E00DDAB
:103BF00007E06D1CA6F1300008EB880100EB4108DE
:103C0000F1E700BF002013902E782E2E12D16D1CEC
:103C100000BF2E78302E01DB392E00DD09E06D1C4F
:103C2000A6F13000139901EB810100EB41001390E4
:103C3000EFE700BF2E7800BF6C2E01D0682E02D1B6
:103C40006D1C2E7800E000E0F6E700BF702E5DD01E
:103C500008DC252E6AD0582E35D0632E09D0642E6C
:103C600069D113E0732E3CD0752E1DD0782E62D111
:103C700028E02168081D2060D1F8009009F0FF0BB2
:103C8000594614A800F054FB56E058E02168081D7E
:103C90002060D1F80090CDE900870A22494614A897
:103CA000139B00F059FA47E02168081D2060D1F805
:103CB0000090CDE900870A22494614A8139B00F022
:103CC000C1FA39E000BF2168081D2060D1F80090DA
:103CD000CDE900871022494614A8139B00F0B2FAE0
:103CE0002AE02168081D2060D1F800B000BF9BF8D1
:103CF00000600BF1010B06B906E0314614A800F094
:103D000017FB17980028F2DA00BF15E02168081D9C
:103D10002060D1F80090002008210B461022CDE948
:103D20000010494614A800F08DFA05E0252114A8DA
:103D300000F0FEFA00E000BF00BF6D1C03E031465A
:103D400014A800F0F5FA17980028BFF61EAF00BFC0
:103D5000179800280ADD169820B103A95046169A34
:103D6000FFF78CFEDDE9161008441790179819B07C
:103D7000BDE8F08FF8B504460E46154633460122DD
:103D800002212046009500F017F828B1606D40F040
:103D9000200060650320F8BD3346002280212046C4
:103DA000009500F009F828B1606D40F020006065D2
:103DB0000320F0E70020EEE72DE9F84F04460D461A
:103DC00090461E46DDF82890FEF770F9A0EB09003A
:103DD000371AFEF76BF982462C480068C0F3CB30E7
:103DE0007843009045E0701C002842D0FEF75EF951
:103DF000A0EB0A00B84200D2A7BB2068406820F0C0
:103E0000E000216848606068B0F5827F0DD1A0684D
:103E1000B0F5004F03D0A068B0F5806F05D12068E1
:103E2000006820F0400021680860A06AB0F5005FDB
:103E30000DD100BF2068006820F4005021680860A0
:103E40002068006840F400502168086000BF01202D
:103E500084F8510000BF002084F8500000BF032008
:103E6000BDE8F88FFFE7009800B900270098401ED2
:103E70000090206880682840A84201D1012000E01D
:103E800000204045AFD10020EAE70000C800002034
:103E9000704710B5FEF710F910BD000000B593B0E3
:103EA000382105A8FCF76BFC14216846FCF767FC79
:103EB00001200590000407900020089001200A903E
:103EC0000020069002200D90C1030E914FF4E011E6
:103ED0000F910020109005A8FEF720FB08B1FDF718
:103EE0004FF90F20009002200190002002904FF423
:103EF000806003900020049002216846FEF7AEF92E
:103F000008B1FDF73DF901200149086713B000BD74
:103F1000000042427047000010B50248FFF74FF81A
:103F200010BD00003410002010B50248FFF747F81C
:103F300010BD00007C10002010B502681F4B984295
:103F40000BD0B0F1804F08D01D4B984205D01D4BCF
:103F5000984202D01C4B984203D122F070024B6869
:103F60001A43164B98420BD0B0F1804F08D0144B37
:103F7000984205D0134B984202D0134B984203D17C
:103F800022F44072CB681A4322F080034C6943EA62
:103F9000040202608B68C3620B688362074B98421D
:103FA00001D10B69036301234361036903F001033A
:103FB0001BB1036923F00103036110BD002C014014
:103FC0000004004000080040000C004070B50446AA
:103FD0002168096921F44051E268114322681161A6
:103FE0002269A1681143626941EA02052168C96832
:103FF00041F20C62914329432268D16021684969EA
:1040000021F44071A2691143226851612D4A21684F
:10401000914202D1FEF7FEF901E0FEF7EBF900EB69
:10402000C00101EB001162689200B1FBF2F100EBFC
:10403000C00202EB001263689B00B2FBF3F2642340
:10404000B2FBF3F202EBC20303EB0212A1EB82011B
:10405000322202EB01116422B1FBF2F101F0F00116
:1040600000EBC00202EB001263689B00B2FBF3F2AC
:104070006423B2FBF3F201EB021200EBC00101EB8F
:10408000001163689B00B1FBF3F100EBC00303EB8D
:1040900000136668B600B3FBF6F36426B3FBF6F3D1
:1040A00003EBC30606EB0313A1EB8301322303EBFF
:1040B00001116423B1FBF3F101F00F0111442268F7
:1040C000916070BD0038014000BFFEE710B5124C92
:1040D00003202061606111A0A0611349E1614FF4E8
:1040E000806121620021A1626162E1620BA0206611
:1040F0000E4961661021A16600212167E1666167B2
:104100000BA1E01DFCF7D2FA0AA12046FCF7CEFA7B
:104110002020A07110BD0000C40A00205465726DFB
:10412000696E616C000000006C0B00206C0F0020B9
:1041300052545400534547474552000010B50146BC
:104140000A69CB689A4204D88C68641EE41AA018E5
:1041500001E0D41A601E10BD2DE9FC5F06460F4633
:1041600092469846DDE90C45002F01DA784200E0DE
:10417000384683464FF0010903E09BFBFAFB09F147
:104180000109D345F9DAC84500D9C14634B1002F39
:1041900003DB05F00400042800D1641E05F00200D2
:1041A00010B1B8F1000F11D005F0010070B96CB179
:1041B00008E0641E2021304600F0BAF8F0680028BC
:1041C00000DA02E00CB1A145F3D300BFF06800288B
:1041D00036DB002F05DA7F422D21304600F0A8F8AB
:1041E00007E005F00400042803D12B21304600F03D
:1041F0009FF8F068002823DB05F00200022814D1A4
:1042000005F0010088B9B8F1000F0ED16CB108E0DB
:10421000641E3021304600F08BF8F068002800DA88
:1042200002E00CB1A145F3D300BFF068002807DB22
:104230004346524639463046CDE9004500F002F883
:10424000BDE8FC9F2DE9FC5F8046894615461E4669
:104250000C9CCDF804900127BB4605E00198B0FB0B
:10426000F5F001900BF1010B0198A842F6D25E45E2
:1042700000D9B3460D9800F00100D0B9CCB10D982B
:1042800000F00200022803D116B93020009001E0AE
:104290002020009009E0641E4046009900F048F894
:1042A000D8F80C00002800DA02E00CB1A345F2D3E4
:1042B00000BFD8F80C00002835DB09E0012E01D939
:1042C000761E04E0B9FBF7FAAA4500D201E06F437D
:1042D000F4E700BF00BFB9FBF7FA0AFB17991348D0
:1042E00010F80A10404600F023F8D8F80C00002817
:1042F00000DA03E0B7FBF5F7002FECD100BF0D9813
:1043000000F0010078B174B109E0641E202140463C
:1043100000F00EF8D8F80C00002800DA02E00CB12A
:10432000A345F2D300BFBDE8FC9F00009C550008E8
:1043300070B504460E46A568681C6168814206D3C4
:1043400020684655681CA060E068401CE060D4E925
:10435000011088420DD1A26821682069FFF78EFB09
:10436000A168884203D04FF0FF30E06001E00020F8
:10437000A06070BD2DE9F0470446894617464FF00E
:10438000000AE56800BFD4F81080A84503D9A8EB5F
:104390000500461E04E0A5EB0800401CA1680E1AAB
:1043A000A068401BB04201D9304601E0A068401B24
:1043B0000646BE4201D2304600E0384606466168F5
:1043C000481932464946FCF795F9B244B144BF1B3F
:1043D0003544A068A84200D10025E560002FD2D165
:1043E0005046BDE8F0872DE9F0470446894615465A
:1043F000E668A068871BAF4208D9616888192A4619
:104400004946FCF777F97019E06010E0B84661683A
:10441000881942464946FCF76DF9A5EB070809EBF8
:10442000070142466068FCF765F9C4F80C80BDE8F6
:10443000F087000002480068C0F3022070470000C7
:104440000CED00E010B5002804DB0A07130E054A46
:10445000135406E00A07140E034A00F00F031B1F53
:10446000D45410BD00E400E018ED00E0EFF310803C
:10447000704730380A2801D2012070470020704769
:1044800008B50020FEF7D5FF00204FF6FF730CA201
:10449000502100900A20FCF7DFFE00204CF2186348
:1044A0000AA26E2100900A20FCF7D6FE00204CF2F2
:1044B000186309A28C2100900A20FCF7CDFE08BDEC
:1044C0004D656E752053797374656D005665722065
:1044D00020312E322E30000053544D3332463130CD
:1044E0003552435436000000704770472DE9F04FB5
:1044F00087B081460D46FDF77DFF07462A4850F8F4
:1045000029404FF0100A07B11CB9012007B0BDE8DF
:10451000F08F04FB0AF0B7FBF0F63EB923463A46AB
:1045200022A10020FFF710FB0120EFE72E604FF4DF
:10453000402068604FF48010A8600020E86006FB0F
:104540000AF0B7FBF0F006900698001B2349A0FB89
:1045500001B00146224600235846FBF7ECFE804698
:10456000B8F1000F02DAC8F1000000E040464FF455
:104570007A7190FBF1F201FB12000A2190FBF1F03D
:1045800005904FF47A7098FBF0FBDDE905012346B6
:104590003A46CDE9011B0096039011490020FFF730
:1045A000D3FA0020B2E700008C5500085B43414E6F
:1045B0005D204552524F523A2050434C4B313D25DD
:1045C0006C7520746F6F206C6F7720666F7220623D
:1045D0006175643D256C750A00000000A08601002D
:1045E0002C56000810B58AB0044628216846FCF70E
:1045F000C6F800200090019002900390049006906D
:104600000120079008904CB9002005900E200990D9
:1046100069460648FDF722F80AB010BD0E20059045
:10462000099069460248FDF719F8F5E78C0F00205C
:10463000B40F00202DE9F84F0746884614469946E6
:1046400007EB470000EBC700242101EB800514B104
:1046500040F2293000E00020064614B14FF6FF700A
:1046600001E04CF2186083462C23F02229460020FA
:104670000096FEF7B1FE44B14FF4FC602C230522F6
:10468000294600900020FEF7A7FE05F10E001FFA54
:1046900080FA5B464246514612200096FCF7DCFD4C
:1046A000B9F1000F07D048F210433E225146DC20FA
:1046B0000096FCF769FD42F20410009005F12B0012
:1046C00081B20123F0220020FEF786FEBDE8F88FBC
:1046D0002DE9F84F04460F461646B44201DCBDE80A
:1046E000F88FF42505FB06F0B0FBF4F01FFA80F814
:1046F00005FB07F0B0FBF4F024301FFA80F94FF00F
:10470000EC0A41F6C3002B460422242100905046B7
:10471000FEF762FE4FF4FC604346042249460090D7
:104720005046FEF759FE00BFD9E738B5044641F2BE
:1047300082002423F022002100900846FEF74CFE60
:104740004FF4FC600223F022222100900020FEF7AB
:1047500043FE092541F282004FF6FF7322462946A7
:1047600000900A20FCF778FD38BD70B502460B4674
:10477000B2F8040208B9002070BD00BFEFF310804A
:10478000014672B6B2F8000202EB001671CE83E861
:104790007100B2F80002401C00F01F00A2F80002F5
:1047A000B2F80402401EA2F8040201B962B6012068
:1047B000E2E700001FB5FDF78BFCFFF76FFBFFF78B
:1047C00045F8FFF70BF8FFF725F8FFF7AFF8FFF70D
:1047D0001BF9FFF7CDF8FFF7F1F8FEF751FE0221C4
:1047E0002548FCF759FD254A01210020FCF724F952
:1047F000234A01210846FCF71FF922A10020FFF7F8
:10480000A3F92E48FEF798FB2D48FEF795FB0027ED
:10481000FDF74CFC05462DE02A48007820B1002029
:1048200028490870FCF768FD00E000BF69460020D9
:10483000FCF79AFA0028F8D100E000BF6946012091
:10484000FCF792FA0028F8D1FDF730FC0446601B13
:10485000B0F57A7F0DD3FCF771FB0646A6EB07088F
:10486000631B424618490020FFF76EF9374625467C
:1048700000BF00BFD0E7000090000020E94400081E
:10488000EB4400085B4D41494E5D205374617274E6
:10489000696E672054494D36202845433131203216
:1048A0006D732920616E642054494D372028554985
:1048B0002032306D73292E2E2E0A00003410002075
:1048C0007C10002030000020E856000810B5144885
:1048D000C06BA0B113A10020FFF736F91048C06BE0
:1048E000806818B10E49C96B8868804700200C4960
:1048F000C863012081F83900FCF704FC10BD0848AA
:1049000090F83800002809DD054890F83800401E6E
:10491000034981F83800012081F8390000BFEDE734
:10492000EC0400205B4755495D204578697420639D
:104930007573746F6D20706167650A0070B52948E2
:1049400090F8385050F825102830405D00EB80007A
:1049500001EB8004606810B3207A00281FDD214835
:1049600090F8380007283CD21E4991F83810491CAD
:104970001C4A82F83810114691F83800616842F8F4
:104980002010227A174920310A54002208310A5493
:1049900008310A540121134A82F8391021E02069B4
:1049A000B8B111A100202268FFF7CEF8FCF7AAFBEE
:1049B0000C492069C8630846C06B006810B1C96B18
:1049C00008688047FCF79EFB0020064981F8390003
:1049D00007E0E06828B1E06880470120014981F8DC
:1049E000390070BDEC0400205B4755495D20456EE1
:1049F00074657220637573746F6D20706167653ABA
:104A00002025730A000000002DE9F041284890F8A5
:104A100038402030075D0FB9BDE8F08124482830C8
:104A2000055D0830065D0838015D781E814216D2AA
:104A30001F482830005D401CC1B21D482830015578
:104A4000015D0830005D401D81420EDB18483030AA
:104A5000005D401CC1B216483030015505E0002110
:104A60001348283001550830015511483030005D99
:104A7000B04217D1A81BC2B22946204600F076F8F2
:104A80000B482830035D0830005D181AC2B2084890
:104A90002830015D204600F069F80020044981F8C3
:104AA000390003E00120024981F8390000BFB3E773
:104AB000EC0400202DE9F0412B4890F838402030DC
:104AC000055D0DB9BDE8F08127482830065D083046
:104AD000075D0838005D002815DD23482830005D9B
:104AE000401EC1B2204828300155015D0830005DEC
:104AF000814216DA1C483030005D401EC1B21A48AF
:104B0000303001550DE0681EC1B2174828300155FC
:104B1000052D02DD681FC0B200E0002012493031CF
:104B2000085511483030005DB84217D1F01BC2B2B1
:104B30003146204600F01AF80B482830035D083053
:104B4000005D181AC2B208482830015D204600F006
:104B50000DF80020044981F8390003E001200249E2
:104B600081F8390000BFADE7EC0400202DE9F041E9
:104B700005460C461746134850F8256004EB8400A0
:104B800006EB8000406840B104EB840006EB800037
:104B9000007A002801DD012000E0002003460948DA
:104BA0002830405DA04201D1012000E000200246F3
:104BB00004EB840056F820103846FFF73BFDBDE8B3
:104BC000F0810000EC0400200021016041600C49EC
:104BD000097B41700A49C96919B1017841F00101A5
:104BE00001700749C96A19B1817841F001018170EA
:104BF0000349C96B19B1817841F004018170704794
:104C00003400002010B588B00E480F49097800EB39
:104C1000011400203423F02296210090FEF7DCFBE3
:104C20000AA2182102A8E368FBF7AAFB00204FF6AE
:104C3000E07302AA962100901220FCF70DFB08B049
:104C400010BD00003400002075000020256C6400B9
:104C500070B590B00CA90020FBF7BCFE424800786C
:104C6000E0B99DF8300041490978884216D19DF895
:104C700031003E494978884210D19DF832003B49C5
:104C8000897888420AD19DF83500384949798842A7
:104C900004D136490E988968884201D0012000E08D
:104CA000002005460DB910B070BD30480CA94EC9A2
:104CB0004EC000202C4908709DF8300010B99DF8B6
:104CC000310010B14FF478440AE09DF8320010B979
:104CD0009DF8350010B14FF6E07401E04FF4FC642C
:104CE00000201623F02224210090FEF775FB9DF88A
:104CF000300030B11EA2282102A80E9BFBF740FB1A
:104D000027E09DF8310050B19DF8340000909DF8E7
:104D100033301DA2282102A8FBF732FB19E09DF8D1
:104D2000350080B19DF83500FBF7E0FF06469DF8A1
:104D300034100E9833461BA2CDE90010282102A89A
:104D4000FBF71EFB05E01EA2282102A80F9BFBF724
:104D500017FB0020234602AA272100901220FCF70F
:104D60007BFA00BF9FE70000800000207C0F00203E
:104D700043414E313A204255532D4F46462120663D
:104D800061696C3D256C750043414E313A205041BC
:104D90005353495645205445433D256420524543CD
:104DA0003D25640043414E313A202573205245434E
:104DB0003D2564206661696C3D256C75000000002E
:104DC00043414E313A204F4B202074783D256C757D
:104DD000000000002DE9F0418AB0044604EBC40055
:104DE0003A2101EB800525480078844201D1012059
:104DF00000E00020064616B140F2293000E0002015
:104E0000074616B14FF6FF7001E04CF2186080467D
:104E10002423F022294600200097FEF7DDFA46B150
:104E20004FF4FC6024230522294600900020FEF761
:104E3000D3FA134800EB0410C0680090104800EB50
:104E4000041010A22021036802A8FBF799FA05F1CB
:104E50000A0081B2434602AA12200097FCF7FCF92F
:104E600042F20410009005F1230081B20123F022E8
:104E70000020FEF7B1FA0AB0BDE8F081750000200D
:104E800034000020252D31307320256C6400000093
:104E900030B591B00446CE2500202823F0222946C3
:104EA0000090FEF799FA1948006840F2127318A2B0
:104EB0002821009007A8FBF763FA002040F2FF7357
:104EC00007AA294600901220FCF7C6F9E079A179DB
:104ED00062792379CDE90332CDE90510E078A17834
:104EE0006278CDE90021029023780EA2282107A83C
:104EF000FBF746FA002005F114014FF6FF7307AAED
:104F000000901220FCF7A8F911B030BD7C00002001
:104F10005458203078253033582020636E743D2556
:104F20006C750000443A2025303258202530325824
:104F30002025303258202530325820253032582054
:104F40002530325820253032582025303258000084
:104F500010B509A10020FEF7F7FD00200E490870EA
:104F60000E490870FDF7A2F80D49086000200D49B0
:104F7000086000F0ADF910BD5B53494D5D20456EF2
:104F80007465722053696D756C6174696F6E206D04
:104F90006F64650A000000007400002075000020A6
:104FA000780000207C00002010B5034803A10268AF
:104FB0000020FEF7C9FD10BD7C0000205B53494D69
:104FC0005D20457869742053696D756C6174696FF3
:104FD0006E206D6F64652C20746F74616C20747822
:104FE0003D256C750A000000F0B58BB00446FDF756
:104FF0005DF8064684B1654880696449097F634A63
:10500000127DCDE90206CDE90021614803782246F0
:1050100060490020FEF798FD00E000BF07A90020CE
:10502000FBF7A2FE0028F8D100E000BF07A901208D
:10503000FBF79AFE0028F8D155480078002849D19E
:1050400004F0010078B1544805780078401C00F065
:105050000300514908702846FFF7BCFE4E4800780F
:10506000FFF7B8FE00BF04F0020090B14A4805788F
:10507000007808B9032002E047480078401E4649FE
:1050800008702846FFF7A6FE43480078FFF7A2FE07
:1050900000BF04F0040090B140483F49097800EB9C
:1050A00001103FA102680020FEF74EFD01203849A3
:1050B0000870FCF727F800F0AFF8FFF7A3FD04F045
:1050C000080000283AD03CA10020FEF73DFD012059
:1050D0000BB0F0BD31483049097800EB01150027CD
:1050E00004F0010038B1D5E90210884203DAE8681B
:1050F000401CE860012704F0020038B16968E868E4
:10510000884203DDE868401EE86001273FB1FFF7F1
:1051100079FD32A10020EB682A68FEF715FD04F046
:10512000080050B131A10020FEF70EFD0020184903
:105130000870FBF7E7FF00F0CBF800BF33480068CA
:10514000301A322820D33148066031480068401CAC
:105150002F49086005A8FFF737FD2E4B0FCB01AD97
:105160000FC50598CDF80A000698CDF80E0001A9E4
:105170000020FBF70BFEFFF76BFD0548007810B928
:1051800005A8FFF785FE00BF0020A1E7CC000020A6
:1051900074000020485700087500002034000020EB
:1051A0005B53494D5D20456E7465722061646A757C
:1051B00073743A2025730A005B53494D5D2045788E
:1051C000697420726571756573742066726F6D20E5
:1051D0004C4953542073746174650A005B53494D04
:1051E0005D202573203D20256C640A005B53494DEA
:1051F0005D204261636B20746F204C4953542066DC
:10520000726F6D2061646A7573740A007800002003
:105210007C000020AC55000810B58AB01A481B4924
:10522000097800EB01140020FEF703F92068FCF771
:1052300055F9012016490870FFF70AFD00204CF2CD
:10524000186314A25A2100901220FCF705F8A068F8
:10525000009015A2202102A86368FBF791F80020B6
:105260004CF2186302AA762100901220FBF7F4FF9B
:1052700000204CF2186311A24FF4807100901220AC
:10528000FBF7EAFF0AB010BD3400002075000020D3
:1052900080000020526F7461746520746F20616417
:1052A0006A7573740000000052616E67653A2025CC
:1052B0006C64207E20256C64000000004C6F6E67DB
:1052C0003A206261636B20746F206C697374000014
:1052D0003EB501A8FFF778FC0020FEF7AAF80FA062
:1052E000FCF7FCF8012011490870FFF7B1FC00241D
:1052F00004E02046FFF76EFD601CC4B2042CF8DB0E
:1053000001A8FFF7C5FD00204CF2186308A24FF476
:10531000807100901220FBF79FFF3EBD53696D75B1
:105320006C6174696F6E206D6F6465008000002091
:105330004C6F6E673A206578697400000020100099
:1053400010000020200000100010200000000000CD
:10535000000000005F000000000700070000147F4D
:10536000147F1400242A7F2A120023130864620089
:10537000364955225000000503000000001C224160
:1053800000000041221C0000082A1C2A080008080E
:105390003E08080000503000000008080808080017
:1053A0000060600000002010080402003E514945E2
:1053B0003E0000427F4000004261514946002141C9
:1053C000454B31001814127F100027454545390020
:1053D0003C4A4949300001710905030036494949F1
:1053E0003600064949291E000036360000000056E6
:1053F0003600000000081422410014141414140094
:105400004122140800000201510906003249794185
:105410003E007E1111117E007F49494936003E4110
:10542000414122007F4141221C007F4949494100FE
:105430007F09090101003E4141497A007F080808BF
:105440007F0000417F4100002040413F01007F0874
:10545000142241007F40404040007F0204027F0050
:105460007F0408107F003E4141413E007F09090949
:1054700006003E4151215E007F0919294600464938
:105480004949310001017F0101003F4040403F0098
:105490001F2040201F007F2018207F006314081465
:1054A0006300030478040300615149454300000090
:1054B0007F41410002040810200041417F000000AC
:1054C0000402010204004040404040000001020488
:1054D00000002054545478007F4844443800384435
:1054E00044442000384444487F0038545454180041
:1054F000087E09010200085454543C007F0804044B
:10550000780000447D4000002040443D0000007FC2
:105510001028440000417F4000007C0418047800FB
:105520007C08040478003844444438007C14141483
:105530000800081414187C007C080404080048546F
:1055400054542000043F444020003C4040207C0054
:105550001C2040201C003C4030403C0044281028C7
:1055600044000C5050503C004464544C440000082B
:105570003641000000007F000000004136080000B6
:1055800008040810080000000000000040420F005E
:1055900020A1070090D0030048E8010030313233E9
:1055A0003435363738394142434445461207000006
:1055B00000080000000000000000000000000405DA
:1055C0000607080900000000000D0102030405069B
:1055D0000708090A0B0C0D0E0F1000000000000058
:1055E0000000010203040607080900000000010290
:1055F000030430313233343536373839414243448D
:10560000454640305800303132333435363738393A
:105610006162636465664030780004000008000041
:105620000000000000020001000010005B43414E3A
:105630005D2050434C4B313D256C75207461726781
:1056400065743D256C752070726573633D256C75BE
:105650002061637475616C3D256C75206572723DC7
:10566000256C642E2530326C6425250A000000006C
:105670005B43414E25645D2053656E642042555363
:105680005920286E6F2066726565206D61696C62B5
:105690006F78292C204553523D30782530386C588E
:1056A000205453523D30782530386C582028E6ADD0
:1056B000A4E697A5E5BF97E99990E9A29131E6ACF8
:1056C000A12FE7A792EFBC8CE5AE9EE99985E58F07
:1056D00091E98081E5B09DE8AF95E69BB4E9A291A0
:1056E000E7B981290A0000005B444941475D205425
:1056F000494D362068656172746265617420646525
:105700006C74613D256C7520696E20256C756D7318
:105710002028657870656374207E35303020666F90
:105720007220326D7320706572696F643B206C6FFC
:10573000772076616C7565203D2049535220737443
:105740006172766564290A005B53494D5D206F6E76
:105750005F7469636B207265636569766564206553
:1057600076656E74733D30782530326C58207374D2
:105770006174653D2564206B65795F707265737334
:1057800065643D2564206C6F6E675F666972656451
:105790003D2564206B65795F646F776E5F74696324
:1057A0006B3D256C75206E6F773D256C750A00008A
:1057B000537065656400000053696D756C617469B0
:1057C0006F6E206D6F6465004272616B6500000052
:1057D0004C6566745F7475726E000000526967688C
:1057E000745F7475726E000041626F757400000022
:1057F0001058000800000020CC0000008C010008B8
:10580000DC580008CC000020A4160000A801000805
:105810000000000000000000000000000000000088
:105820000000000000000000000000000000000078
:105830000000000000000000000000000000000068
:1058400000000000B05700080000000078000000D1
:1058500000000000C8570008000000000100000020
:1058600000000000D0570008000000000100000008
:1058700000000000DC5700080000000001000000EC
:105880000000000000000000000000000000000018
:1058900001000000514F0008E94F0008A94F00081F
:1058A000B8570008000000000000000000000000E1
:1058B00084000020E85700080000000000000000FD
:1058C000814400080000000000000000000000000B
:0C58D000100000000100000000127A002F
:04000005080001519D
:00000001FF
