:020000040800F2
:10000000B8070020ED0100082B170008251500088F
:1000100029170008E3030008491900080000000040
:100020000000000000000000000000002F17000882
:1000300005040008000000002D1700083117000813
:10004000070200080702000807020008070200086C
:10005000070200080702000807020008070200085C
:10006000070200080702000807020008070200084C
:10007000070200080702000807020008070200083C
:10008000070200080702000807020008070200082C
:10009000070200080702000807020008070200081C
:1000A000070200080702000807020008070200080C
:1000B000911700080702000807020008070200085D
:1000C00007020008070200080702000807020008EC
:1000D00007020008070200080702000807020008DC
:1000E00007020008070200080702000800000000DD
:1000F0000000000000000000000000000000000000
:1001000000000000000000000702000807020008CD
:10011000070200080702000807020008070200089B
:10012000070200080702000807020008070200088B
:10013000070200080000000000000000070200089D
:10014000070200080702000807020008070200086B
:1001500000F002F800F03AF80AA090E8000C82449F
:100160008344AAF10107DA4501D100F02FF8AFF27C
:10017000090EBAE80F0013F0010F18BFFB1A43F085
:10018000010318476018000080180000103A24BFCF
:1001900078C878C1FAD8520724BF30C830C144BFEC
:1001A00004680C607047000000230024002500262E
:1001B000103A28BF78C1FBD8520728BF30C148BFCA
:1001C0000B6070471FB51FBD10B510BD00F0CFF814
:1001D0001146FFF7F7FF01F0C9FB00F0EDF803B49B
:1001E000FFF7F2FF03BC00F0F5F800000948804774
:1001F00009480047FEE7FEE7FEE7FEE7FEE7FEE709
:10020000FEE7FEE7FEE7FEE704480549054A064B20
:10021000704700008D17000851010008B801002048
:10022000B8070020B8030020B803002053EA020CEE
:1002300000F069802DE9F04B4FF00006002B1FBF46
:10024000B3FA83F503FA05F424FA05F65E4012BF0B
:100250001643B2FA82F502FA05F4C5F120051EBF75
:1002600022FA05FC44EA0C04203556EA044C4FEA15
:10027000144418BF641C4FF000084FF0000990426E
:1002800071EB030C39D3002919BFB1FA81F701FAD8
:1002900007F6B0FA80F700FA07F6C7F120071EBF8D
:1002A00020FA07FC46EA0C062037B6FBF4FCA7EB65
:1002B0000507103F07F01F0BCBF120060CFA0BFBD4
:1002C0002CFA06F644BFB3460026202FA4BF5E4694
:1002D0004FF0000B5BEA060C08BF4FF0010B19EB67
:1002E0000B09ABFB027C48EB0608C01B06FB02CCEB
:1002F0000BFB03CC71EB0C01C1E70B4602464146F8
:100300004846BDE8F08B13B54FF000004FF00001F8
:10031000AFF30080BDE81C4070474FF0000200B50D
:10032000134694469646203922BFA0E80C50A0E818
:100330000C50B1F12001BFF4F7AF090728BFA0E8C6
:100340000C5048BF0CC05DF804EB890028BF40F892
:10035000042B08BF704748BF20F8022B11F0804FD4
:1003600018BF00F8012B70477047704770477546FB
:1003700000F02CF8AE4605006946534620F0070011
:10038000854618B020B5FFF73FFFBDE820404FF08D
:1003900000064FF000074FF000084FF0000B21F06F
:1003A0000701AC46ACE8C009ACE8C009ACE8C0093C
:1003B000ACE8C0098D46704710B50446AFF3008025
:1003C0002046BDE81040FFF70ABF00000048704714
:1003D0005401002001491820ABBEFEE726000200B0
:1003E0007047FEE700B587B00091002101910391AD
:1003F000049302918DF8141006AB694600F005F8DD
:1004000007B000BD704772B6FEE7F0B590F8205017
:100410000468A468012D05D0022D03D0416A41F47F
:1004200080214DE014F0406F01D1E50045D5C4F3C3
:1004300001640125A5401D608D684FF4C0739DB116
:10044000CE6835434E6845EAC605066803EB0417D7
:10045000F5514FF4C275076805EB04150E697E511E
:10046000097D012905D009E00E88CD6845EA465589
:10047000EBE701684E5946F480764E511179D2F877
:1004800005504FF4C67641EA0521056806EB0416CF
:10049000A9511178D2F801204FF4C47541EA022124
:1004A000026805EB04155151006803EB0411425832
:1004B00042F0010242500020F0BD416A41F40011B7
:1004C00041620120F0BD70B5040003D094F8200013
:1004D00010B104E0012070BD204600F081F82068D2
:1004E000016841F00101016000F0F0F905460526C0
:1004F00004E000F0EBF9401B0A2811D8206840689E
:10050000C007F6D02068016821F00201016000F008
:10051000DDF905460BE000F0D9F9401B0A2806D9A1
:10052000606A40F40030606284F82060D2E720689E
:1005300040688007EFD4207E0128206801683DD004
:1005400021F080010160607E01282068016838D0B8
:1005500021F040010160A07E01282068016833D0AD
:1005600021F020010160E07E0128206801682ED082
:1005700041F010010160207F01282068016829D026
:1005800021F008010160607F01282068016824D003
:1005900021F004010160D4E902010843D4E9041206
:1005A000114308436168491E08432168C86100205F
:1005B0006062012084F82000002070BD41F08001BD
:1005C000C0E741F04001C5E741F02001CAE721F052
:1005D0001001CFE741F00801D4E741F00401D9E769
:1005E000F0B585B00021304A00910191029103914C
:1005F0002C4F11680368BC14022503262B48491CA4
:10060000BB4220D11160012907D1C16941F00071BD
:10061000C161C16901F000710491816941F0040177
:1006200081618069224F00F0040004904FF4006063
:1006300000906946384600F053F8694638460396FC
:10064000CDE9004529E01B4FBB4228D1C36943F0E7
:100650008063C361C369012903F08063049311605F
:1006600007D1C16941F00071C161C16901F0007138
:100670000491816941F0080181618069009400F072
:1006800008000D4C04906946204600F029F86014DB
:10069000CDE9000569460396204600F021F805B033
:1006A000F0BD00000064004008000020001002407F
:1006B0000008014000680040000C014070B504468D
:1006C00000F004F90546601C02D004480078044498
:1006D00000F0FCF8401BA042FAD370BD0C000020D3
:1006E0002DE9F84FDFF8B8910024A9F1040B234657
:1006F0000F2709F1040AABF1040EC9E00125A5405A
:100700002A40AA427DD1674ED1F804C0ACEB06085E
:10071000B44532D014DCBCF1030F3AD009DCBCF193
:10072000000F2AD0BCF1010F1CD0BCF1020F31D157
:100730001DE0BCF1110F17D0BCF1120F2AD119E046
:10074000B8F5881F19D006DCB8F5803F15D0B8F58C
:10075000801F1FD111E0B8F5001F0ED0B8F5041F9F
:1007600018D10AE0CB6815E0CB681B1D12E0CB68FE
:1007700008330FE0CB680C330CE08B682BB1012BF6
:100780004FF0080303D0456104E0042302E0056153
:1007900000E00023FF2A01D8064601E000F104062C
:1007A0004FEA840501D9A5F12005D6F8008007FAA3
:1007B00005FC28EA0C0803FA05F548EA0508C6F81E
:1007C00000804D68ED0062D5374DAE6946F00106F8
:1007D000AE61AD6924F0030605F001050095334DC7
:1007E00006EB050CDCF80850A607360F07FA06F8EA
:1007F00025EA0805DFF8B880404503D14FF000082E
:1008000017E044E0DFF8AC80404502D14FF001082A
:100810000FE0DFF8A480404502D14FF0020808E065
:10082000DFF89880404502D14FF0030801E04FF017
:10083000040808FA06F848EA0508CCF808804D686C
:10084000D9F80060ED024D4601D5164300E096430D
:100850002E604D68DAF80060AD02554601D51643AA
:1008600000E096432E604D68DBF80060AD035D4606
:1008700001D5164300E096432E604D68DEF8006017
:10088000ED03754601D5164300E096432E60641CC7
:100890000D682A46E5407FF431AFBDE8F88F0000CF
:1008A0000804014000001110001002400000014047
:1008B00000080140000C01400010014000140140FC
:1008C0000AB1016170470904FBE700000148806834
:1008D000704700000C000020024881680278114433
:1008E000816070470C000020074810B5016841F096
:1008F00010010160032000F073F80F2000F006F8EB
:1009000000F024F8002010BD0020024070B50D4D0D
:1009100004464FF47A712878B1FBF0F00A4909686F
:10092000B1FBF0F000F0EEFB48B9102C07D200222A
:100930002146501E00F034F800206C6070BD01208C
:1009400070BD00000C000020180000200B4808B506
:10095000816941F001018161816901F0010100912A
:10096000C16941F08051C161C06900F080500090C0
:100970000348416821F0E061416008BD0010024079
:1009800000000140002809DB00F01F020121914016
:100990004009800000F1E020C0F80011704700001D
:1009A000F0B40E4B1B680C46C3F30223C3F10705DA
:1009B000042D00D90425191D072901D2002300E0C8
:1009C000DB1E012606FA05F1491E214099409E4092
:1009D000761E16403143F0BC00F0B7BF0CED00E0CE
:1009E000064900F0070208684FF6FF03184040EA86
:1009F0000220034A10430860704700000CED00E03D
:100A00000000FA052DE9F0470F46050061D0434E7E
:100A1000306800F00700B84209D2306820F00700C3
:100A200038433060306800F00700B84251D1286880
:100A30003B4C810712D5400703D5606840F4E06065
:100A400060602878000703D5606840F460506060FB
:100A50006068A96820F0F000084360602878C0074B
:100A600028D06868012810D02168022810D0890792
:100A700000292EDA616821F0030101436160FFF76C
:100A800025FF804641F288390DE021688903EFE7B0
:100A90008901EDE7FFF71AFFA0EB0801494502D9EC
:100AA0000320BDE8F0876068696800F00C00B0EBD7
:100AB000810FEFD1306800F00700B8420BD93068E1
:100AC00020F0070038433060306800F00700B8427B
:100AD00001D00120E5E72878400705D56068E9687E
:100AE00020F4E060084360602878000706D560685D
:100AF000296920F4605040EAC100606000F038F8D5
:100B00006168084AC1F30311515CC8400649086096
:100B100006480068FFF7FAFE0020C2E70020024006
:100B200000100240CA190008180000201000002020
:100B30000448054900684968044AC1F30221515C30
:100B4000C84070471800002000100240DA19000861
:100B50000448054900684968044AC1F3C221515C50
:100B6000C84070471800002000100240DA19000841
:100B70002DE9F0411D494A681D4802F00C03042B81
:100B80002ED0082B2CD11B48C2F38343C45CD00366
:100B900028D5C86A174A00F00F000E32105CCA6AE6
:100BA000D20316D5CA6AC96AC2F30312C1F303217C
:100BB000521C891CA2FB0023A1FB04150C4F00262C
:100BC000A1FB070C05FB07C501FB0651FFF72EFB38
:100BD00003E007496143B1FBF0F00D2C00D1400860
:100BE000BDE8F08104486043FAE7000000100240CD
:100BF00000127A00AC19000800093D002DE9F84FF9
:100C0000040070D02078F14DC00749D06868C0F367
:100C10008100012807D06868C0F38100022809D14B
:100C20006868C00306D52868800339D5A068002805
:100C3000E7D035E0A068B0F5803F0BD010B1B0F53B
:100C4000A02F11D0286820F480302860286820F474
:100C5000802002E0286840F480302860A06890B1CD
:100C6000FFF734FE06460AE0286840F4802028603A
:100C7000F0E700BFFFF72AFE801B642876D82868BB
:100C80008003F7D50CE0FFF721FE064605E000BF24
:100C9000FFF71CFE801B6428F0D828688003F7D477
:100CA0002078CB4E80074FF001094FF000073AD56E
:100CB000686810F00C0F07D06868C0F38100022844
:100CC00009D16868C00306D42868800715D5606913
:100CD000012808D111E06069B8B1C6F80090FFF7AB
:100CE000F5FD804606E042E1FFF7F0FDA0EB0800CD
:100CF0000228C3D828688007F6D52868A16920F0A3
:100D0000F80040EAC10028600DE03760FFF7DEFD23
:100D1000804605E0FFF7DAFDA0EB08000228ADD819
:100D200028688007F6D4207800072ED5A948E16905
:100D3000E9B1C0F80090FFF7C9FD804606E000BFAA
:100D4000FFF7C4FDA0EB0800022897D8686A800767
:100D5000F6D5A1484FF4FA510068B0FBF1F00090CD
:100D600000BF0098411E0091FAD20EE0B0E007608B
:100D7000FFF7ACFD804605E0FFF7A8FDA0EB0800FB
:100D8000022889D8686A8007F6D42078400763D59E
:100D9000E8694FF00008C00009D4E86940F08050CD
:100DA000E861E8694FF0010800F0805000908B483E
:100DB0000168C90512D40168834641F4807101605D
:100DC000FFF784FD824605E0FFF780FDA0EB0A00F7
:100DD00064287DD8DBF80000C005F5D5206901281E
:100DE0000AD008B1052813D0286A20F00100286233
:100DF000286A20F0040002E0286A40F0010028621E
:100E0000206941F2883B98B1FFF760FD82460BE014
:100E1000286A40F004002862EEE700BFFFF756FDA5
:100E2000A0EB0A01594553D8286A8007F6D50CE093
:100E3000FFF74CFD824605E0FFF748FDA0EB0A01F5
:100E4000594545D8286A8007F6D4B8F1000F03D079
:100E5000E86920F08050E861E06AD0B36968C903AE
:100E600007D56968C1F38101022902D1E96AC90382
:100E70007DD4022808D0E86A20F48030E862B766A2
:100E8000FFF724FD80463BE02868C00005D5E86AEE
:100E9000616B00F0F000884269D1B766FFF716FD7C
:100EA000804605E0FFF712FDA0EB0800642874D827
:100EB00028680001F6D4E86A616B20F0F00008436E
:100EC000E862E86A216B20F470600843E86201E0A0
:100ED00063E018E0C6F86890FFF7F8FC804605E08C
:100EE000FFF7F4FCA0EB0800642856D8286800013E
:100EF000F6D508E0FFF7EAFCA0EB080064284CD820
:100F000028680001F6D4206A90B36968C1F38101B2
:100F1000022949D00228376603D0FFF7D7FC0446E0
:100F20003EE0FFF7D3FC074605E000BFFFF7CEFC2D
:100F3000C01B022831D828688001F7D4606AB0F558
:100F4000803F09D1E86A61680843E862E86AE168BD
:100F500020F00F000843E862D4E9090108436968FA
:100F600021F4741108436860C6F8609001E028E03D
:100F700029E0FFF7ABFC044605E000BFFFF7A6FC45
:100F8000001B022809D828688001F7D51BE000BFA4
:100F9000FFF79CFC001B022802D90320BDE8F88F54
:100FA00028688001F4D40EE00128F7D06868626AEE
:100FB00000F48031914204D1A16A00F4701088429B
:100FC00001D00120EAE70020E8E70000001002401D
:100FD000000042428004424218000020007000409D
:100FE00070B5040009D0606A002540B125616561D3
:100FF000A56294F8510040B10CE0012070BD60681A
:10100000B0F5827FF4D0E561F2E784F850502046D5
:1010100000F040F8022084F851002068016821F0B7
:1010200040010160A088218900F4827001F404412C
:101030000843A18901F400610843217C01F0020109
:101040000843217D01F001010843218B01F4007167
:101050000843217F01F03801084394F8201001F083
:1010600080010843218D01F4005108432168086084
:10107000A069042101EA1040216848602068C16924
:1010800021F40061C1616565012084F851000020F0
:1010900070BD000030B585B0002400940194029426
:1010A000039400681449884223D11448816941F4AB
:1010B00080518161816901F480510491816941F01D
:1010C0000401816180690E4D00F004000490A020AD
:1010D0000090022001900320039069462846FFF704
:1010E000FFFA4020CDE90004694628460294FFF744
:1010F000F7FA05B030BD000000300140001002409A
:101100000008014010B5401EB0F1807F01D30120DE
:1011100010BD4FF0E02460610F21601700F015FC56
:101120000020A06107202061002010BD704770479B
:1011300070B590F83C20012A29D0012480F83C4069
:10114000022280F83D2003685A689D6822F07006EC
:101150000A6832435A600F4B02689A420BD0B2F1D0
:10116000804F08D00C4B9A4205D00C4B9A4202D0CB
:101170000B4B9A4204D1496825F0800319439160D2
:1011800080F83D40002180F83C10084670BD0220E8
:1011900070BD0000002C0140000400400008004029
:1011A000000C004010B5040003D094F83D0010B1CD
:1011B00007E0012010BD002084F83C00204600F02C
:1011C0001FF8022084F83D00211D206800F0E6FA97
:1011D000012084F8460084F83E0084F83F0084F83B
:1011E000400084F8410084F8420084F8430084F809
:1011F000440084F8450084F83D00002010BD000044
:1012000008B50068B0F1804F12D10A48C16941F0B9
:101210000101C161C069002200F001000090114687
:101220001C20FFF7BDFBBDE808401C20FFF7AABB50
:1012300008BD00000010024070B5044690F83C0064
:101240000025012817D0012684F83C60022084F88C
:101250003D002068826822F0770222F47F4282609B
:101260000868502838D00DDC20284FD005DC90B31A
:10127000102811D14AE0022070BD302846D0402805
:101280000AD13BE060282FD070280DD0B0F5805FE8
:1012900003D0B0F5005F12D0012584F83D60002036
:1012A00084F83C00284670BDCB68D1E90121206854
:1012B00000F0B8FA2068816841F0770109E0CB6856
:1012C000D1E90121206800F0ADFA2068816841F47D
:1012D00080418160E1E719E0CA684968206800F050
:1012E000B3FA5021206806E0CA684968206800F017
:1012F000BCFA6021206800F09FFACEE7CA6849680E
:10130000206800F0A1FA40212068F4E72268014635
:101310001046F0E770472DE9F04104460068C668C2
:1013200005694FF00007A90713D5B10711D5F91EBC
:10133000016101202077206880698007204602D063
:10134000FFF7E8FF04E000F07EF8204600F07CF8AC
:101350002777680716D5700714D521686FF0040049
:101360000861022020772068806910F4407F2046C1
:1013700002D0FFF7CFFF04E000F065F8204600F050
:1013800063F82777280715D5300713D521686FF044
:1013900008000861042020772068C0698007204683
:1013A00002D0FFF7B7FF04E000F04DF8204600F050
:1013B0004BF82777E80616D5F00614D521686FF0AC
:1013C00010000861082020772068C06910F4407F71
:1013D000204602D0FFF79EFF04E000F034F82046DC
:1013E00000F032F82777E80708D0F00706D0216828
:1013F0006FF001000861204600F027F8280608D5A4
:10140000300606D521686FF0800008612046FFF79E
:101410008DFE680608D5700606D521686FF040007D
:101420000861204600F012F8A8060AD5B00608D5D3
:1014300021686FF0200008612046BDE8F041FFF709
:1014400076BEBDE8F081704770477047704770B551
:10145000040004D094F84100002510B106E00120FA
:1014600070BD84F84050204600F024F8242084F811
:1014700041002068C16821F40051C160204600F09D
:1014800007FA2068016921F49041016120684169EF
:1014900021F02A0141612068C16841F40051C16016
:1014A0006564202084F8410084F8420065630020D0
:1014B00070BD000030B585B0002400940194029402
:1014C000039400681449884224D11448816941F486
:1014D00080418161816901F480410491816941F019
:1014E0000401816180690E4D00F0040004904FF406
:1014F0000070009002200190032003906946284666
:10150000FFF7EEF82815CDE9000469462846029455
:10151000FFF7E6F805B030BD00380140001002408A
:1015200000080140FEE700000D4810B50B490160BE
:101530001021416000218160C1600161416101763B
:1015400041768176C17601774177FEF7BCFF0028AE
:1015500003D0BDE81040FEF756BF10BD0064004048
:101560001C0000200D4810B50B490160102141609E
:1015700000218160C160016141610176417681761F
:10158000C17601774177FEF79EFF002803D0BDE8C2
:101590001040FEF738BF10BD006800404400002036
:1015A0002DE9F04186B0002424480094019402946F
:1015B0000394816941F010018161816901F010019A
:1015C0000491816941F004018161816901F00401A4
:1015D0000491816941F0080181618069184F00F030
:1015E00008000490002230213846FFF769F9DFF83F
:1015F0005480002203214046FFF762F90720CDE91D
:101600000004694638460294FFF76AF83020012545
:101610000226CDE90005CDE9024669463846FFF7C6
:101620005FF80320CDE90005CDE902466946404652
:10163000FFF756F806B0BDE8F08100000010024048
:1016400000100140000C01400F4810B50D49016029
:101650004FF48271416000218160C1604FF40072DB
:101660000161C0E90512C1610162416281620A2122
:10167000C162FFF7B5FC002803D0BDE81040FEF7BB
:10168000C2BE10BD003001406C00002010B586B015
:1016900000241648009401940294039404944FF09B
:1016A0008041059401600721C0E9011440F2E7314F
:1016B000C0E903148461FFF775FD08B1FEF7A3FECE
:1016C0004FF48050009069460848FFF7B5FD08B117
:1016D000FEF799FE049404A904480594FFF728FD39
:1016E000002801D0FEF78FFE06B010BDC400002018
:1016F0000C4810B50A4901604FF4E1314160002106
:1017000081600C22C160C0E904128161C161FFF7F0
:101710009EFE002803D0BDE81040FEF774BE10BD49
:10172000003801400C010020FEE7FEE770477047DB
:10173000FFF7D2B830B593B038216846FEF7EDFD1B
:1017400014210EA8FEF7E9FD0220002400900125D7
:10175000102008940B94CDE905506846FFF74EFA27
:1017600008B172B6FEE70F20CDE90E041094119473
:1017700000210EA81294FFF745F908B172B6FEE7F2
:101780000148056713B030BD0000424270470000B9
:101790000148FFF7C0BD0000C4000020F0B502689A
:1017A0001C4B1D4C1D4D1E4E4FF08047984207D0DC
:1017B000B84205D0A04203D0A84201D0B04204D123
:1017C00022F0700C4A6842EA0C02984207D0B842F4
:1017D00005D0A04203D0A84201D0B04203D122F4E8
:1017E0004074CA6822434C6922F08002224302609E
:1017F0008A68C2620A688262984201D109690163FB
:10180000012141610169C90703D0016921F001018A
:101810000161F0BD002C01400004004000080040C0
:10182000000C004010B5846842EA032224F47F448F
:101830000A432243826010BD826822F070020A438C
:1018400042F007018160704710B5036A046A24F012
:1018500001040462846924F0F00444EA021423F0D1
:101860000A020A438461026210BD10B5036A046A69
:1018700024F010040462846923F0A00324F470446B
:1018800044EA023243EA01118261016210BD0000A4
:1018900070B5044600680169E26821F440511143C3
:1018A00001612169A0680843616908432168CA6829
:1018B00041F20C639A430243CA6020684169A269FD
:1018C00021F44071114341611E492068884202D1D0
:1018D000FFF73EF901E0FFF72BF900EBC00101EB48
:1018E0000012606864218000B2FBF0F3B3FBF1F3F7
:1018F0006FF018067343B2FBF0F5B2FBF0F605EBA0
:101900008305322303EB0515B5FBF1F5B6FBF1F6C4
:1019100005F0F00505EB0615B2FBF0F6B2FBF0F0B2
:10192000B0FBF1F06FF01802504306EB800003EBC0
:101930000010B0FBF1F0216800F00F00284488602F
:1019400070BD000000380140FEE70907090E0028BD
:1019500004DB00F1E02080F80014704700F00F0075
:1019600000F1E02080F8141D70470000FEF7BCFF76
:10197000FFF7E0FEFFF714FEFFF7D6FDFFF7F2FDDD
:10198000FFF762FEFFF7B4FEFFF780FE40F223147C
:101990006420FEF793FE0423024A21460248FEF724
:1019A00021FDF5E7000000201C00002000000405D8
:1019B0000607080900000000000D010203040506E7
:1019C0000708090A0B0C0D0E0F10000000000000A4
:1019D00000000102030406070809000000000102DC
:1019E00003040000041A0008000000201C0000008E
:1019F0008C010008201A00081C0000209C07000031
:101A0000A8010008112233445566778800000000C1
:101A100001000000100000000000000000127A0029
:04000005080001519D
:00000001FF
