:020000040800F2
:10000000B80B0020ED010008631D0008F51600087C
:10001000611D0008E30300082F2100080000000014
:10002000000000000000000000000000551E000855
:10003000E503000800000000651D0008571E0008C9
:10004000070200080702000807020008070200086C
:10005000070200080702000807020008070200085C
:10006000070200080702000807020008070200084C
:10007000070200080702000807020008070200083C
:10008000070200080702000807020008070200082C
:10009000070200080702000807020008070200081C
:1000A000070200080702000807020008070200080C
:1000B000B91E00080702000807020008070200082E
:1000C00007020008070200080702000807020008EC
:1000D00007020008070200080702000807020008DC
:1000E00007020008070200080702000800000000DD
:1000F0000000000000000000000000000000000000
:1001000000000000000000000702000807020008CD
:10011000070200080702000807020008070200089B
:10012000070200080702000807020008070200088B
:10013000070200080000000000000000070200089D
:10014000070200080702000807020008070200086B
:1001500000F002F800F03AF80AA090E8000C82449F
:100160008344AAF10107DA4501D100F02FF8AFF27C
:10017000090EBAE80F0013F0010F18BFFB1A43F085
:10018000010318477C2000009C200000103A24BF87
:1001900078C878C1FAD8520724BF30C830C144BFEC
:1001A00004680C607047000000230024002500262E
:1001B000103A28BF78C1FBD8520728BF30C148BFCA
:1001C0000B6070471FB51FBD10B510BD00F0CFF814
:1001D0001146FFF7F7FF01F0BBFF00F0EDF803B4A5
:1001E000FFF7F2FF03BC00F0F5F800000948804774
:1001F00009480047FEE7FEE7FEE7FEE7FEE7FEE709
:10020000FEE7FEE7FEE7FEE704480549054A064B20
:1002100070470000B51E000851010008B805002015
:10022000B80B0020B8070020B807002053EA020CE2
:1002300000F069802DE9F04B4FF00006002B1FBF46
:10024000B3FA83F503FA05F424FA05F65E4012BF0B
:100250001643B2FA82F502FA05F4C5F120051EBF75
:1002600022FA05FC44EA0C04203556EA044C4FEA15
:10027000144418BF641C4FF000084FF0000990426E
:1002800071EB030C39D3002919BFB1FA81F701FAD8
:1002900007F6B0FA80F700FA07F6C7F120071EBF8D
:1002A00020FA07FC46EA0C062037B6FBF4FCA7EB65
:1002B0000507103F07F01F0BCBF120060CFA0BFBD4
:1002C0002CFA06F644BFB3460026202FA4BF5E4694
:1002D0004FF0000B5BEA060C08BF4FF0010B19EB67
:1002E0000B09ABFB027C48EB0608C01B06FB02CCEB
:1002F0000BFB03CC71EB0C01C1E70B4602464146F8
:100300004846BDE8F08B13B54FF000004FF00001F8
:10031000AFF30080BDE81C4070474FF0000200B50D
:10032000134694469646203922BFA0E80C50A0E818
:100330000C50B1F12001BFF4F7AF090728BFA0E8C6
:100340000C5048BF0CC05DF804EB890028BF40F892
:10035000042B08BF704748BF20F8022B11F0804FD4
:1003600018BF00F8012B70477047704770477546FB
:1003700000F02CF8AE4605006946534620F0070011
:10038000854618B020B5FFF73FFFBDE820404FF08D
:1003900000064FF000074FF000084FF0000B21F06F
:1003A0000701AC46ACE8C009ACE8C009ACE8C0093C
:1003B000ACE8C0098D46704710B50446AFF3008025
:1003C0002046BDE81040FFF70ABF00000048704714
:1003D0005805002001491820ABBEFEE726000200A8
:1003E0007047FEE77047000070B51F4C00250121E3
:1003F000204600F045FA00B901250221204600F010
:100400003FFA08B945F00205184CA06885422AD089
:10041000174945EA800011F82000616840B20818C9
:100420000146606000D54942042913DB01260028FB
:1004300006DA2670642302220EA10F4801F00AF9A1
:100440006068002806DD6670642302220BA10A485A
:1004500001F000F96068002800DA4042042801DB5E
:1004600000206060A56070BD001001400000002009
:10047000882100087A7A000010010020667A0000C6
:1004800072B6FEE770B5040003D094F8200010B1F6
:1004900004E0012070BD204600F082F82068016869
:1004A00041F00101016000F0F5F90546052604E080
:1004B00000F0F0F9401B0A2811D820684068C007F6
:1004C000F6D02068016821F00201016000F0E2F935
:1004D00005460BE000F0DEF9401B0A2806D9606AE9
:1004E00040F40030606284F82060D2E72068406801
:1004F0008007EFD4207E0128206801683DD021F0DC
:1005000080010160607E01282068016838D021F0F8
:1005100040010160A07E01282068016833D021F0ED
:1005200020010160E07E0128206801682ED041F0A2
:1005300010010160207F01282068016829D021F086
:1005400008010160607F01282068016824D021F043
:1005500004010160D4E902010843D4E90412114303
:1005600008436168491E08432168C8610020606231
:10057000012084F82000002070BD41F08001C0E718
:1005800041F04001C5E741F02001CAE721F0100128
:10059000CFE741F00801D4E741F00401D9E70000BA
:1005A000F0B585B00021304A00910191029103918C
:1005B0002C4F11680368BC14022503262B48491CE4
:1005C000BB4220D11160012907D1C16941F00071FE
:1005D000C161C16901F000710491816941F00401B8
:1005E00081618069224F00F0040004904FF40060A4
:1005F00000906946384600F053F86946384603963D
:10060000CDE9004529E01B4FBB4228D1C36943F027
:100610008063C361C369012903F08063049311609F
:1006200007D1C16941F00071C161C16901F0007178
:100630000491816941F0080181618069009400F0B2
:1006400008000D4C04906946204600F029F860141B
:10065000CDE9000569460396204600F021F805B073
:10066000F0BD0000006400400C00002000100240BB
:100670000008014000680040000C014070B50446CD
:1006800000F008F90546601C02D0044800780444D4
:1006900000F000F9401BA042FAD370BD100000200A
:1006A0002DE9F84FDFF8B8910024A9F1040B234697
:1006B0000F2709F1040AABF1040EC9E00125A5409A
:1006C0002A40AA427DD1674ED1F804C0ACEB06089F
:1006D000B44532D014DCBCF1030F3AD009DCBCF1D4
:1006E000000F2AD0BCF1010F1CD0BCF1020F31D198
:1006F0001DE0BCF1110F17D0BCF1120F2AD119E087
:10070000B8F5881F19D006DCB8F5803F15D0B8F5CC
:10071000801F1FD111E0B8F5001F0ED0B8F5041FDF
:1007200018D10AE0CB6815E0CB681B1D12E0CB683E
:1007300008330FE0CB680C330CE08B682BB1012B36
:100740004FF0080303D0456104E0042302E0056193
:1007500000E00023FF2A01D8064601E000F104066C
:100760004FEA840501D9A5F12005D6F8008007FAE3
:1007700005FC28EA0C0803FA05F548EA0508C6F85E
:1007800000804D68ED0062D5374DAE6946F0010638
:10079000AE61AD6924F0030605F001050095334D07
:1007A00006EB050CDCF80850A607360F07FA06F82A
:1007B00025EA0805DFF8B880404503D14FF000086E
:1007C00017E044E0DFF8AC80404502D14FF001086B
:1007D0000FE0DFF8A480404502D14FF0020808E0A6
:1007E000DFF89880404502D14FF0030801E04FF058
:1007F000040808FA06F848EA0508CCF808804D68AD
:10080000D9F80060ED024D4601D5164300E096434D
:100810002E604D68DAF80060AD02554601D51643EA
:1008200000E096432E604D68DBF80060AD035D4646
:1008300001D5164300E096432E604D68DEF8006057
:10084000ED03754601D5164300E096432E60641C07
:100850000D682A46E5407FF431AFBDE8F88F00000F
:100860000804014000001110001002400000014087
:1008700000080140000C014000100140001401403C
:100880008068084000D0012070470AB101617047BC
:100890000904FBE701488068704700001000002051
:1008A000024881680278114481607047100000207E
:1008B000074810B5016841F010010160032000F005
:1008C00073F80F2000F006F800F024F8002010BDA7
:1008D0000020024070B50D4D04464FF47A7128781F
:1008E000B1FBF0F00A490968B1FBF0F000F0A1FC9F
:1008F00048B9102C07D200222146501E00F034F8CF
:1009000000206C6070BD012070BD00001000002050
:100910001C0000200B4808B5816941F0010181618C
:10092000816901F001010091C16941F08051C1610B
:10093000C06900F0805000900348416821F0E061F8
:10094000416008BD0010024000000140002809DBA2
:1009500000F01F02012191404009800000F1E020D9
:10096000C0F8001170470000F0B40E4B1B680C4635
:10097000C3F30223C3F10705042D00D90425191D73
:10098000072901D2002300E0DB1E012606FA05F14B
:10099000491E214099409E40761E16403143F0BCCE
:1009A00001F0C6BB0CED00E0064900F00702086844
:1009B0004FF6FF03184040EA0220034A1043086044
:1009C000704700000CED00E00000FA052DE9F0474B
:1009D0000F46050061D0434E306800F00700B84272
:1009E00009D2306820F0070038433060306800F0EA
:1009F0000700B84251D128683B4C810712D5400707
:100A000003D5606840F4E06060602878000703D593
:100A1000606840F4605060606068A96820F0F00091
:100A2000084360602878C00728D06868012810D083
:100A30002168022810D0890700292EDA616821F088
:100A4000030101436160FFF725FF804641F28839C9
:100A50000DE021688903EFE78901EDE7FFF71AFF51
:100A6000A0EB0801494502D90320BDE8F087606882
:100A7000696800F00C00B0EB810FEFD1306800F036
:100A80000700B8420BD9306820F0070038433060C7
:100A9000306800F00700B84201D00120E5E728786F
:100AA000400705D56068E96820F4E06008436060AD
:100AB0002878000706D56068296920F4605040EA6C
:100AC000C100606000F038F86168084AC1F30311A2
:100AD000515CC8400649086006480068FFF7FAFE06
:100AE0000020C2E70020024000100240E62100087A
:100AF0001C000020140000200448054900684968D3
:100B0000044AC1F30221515CC84070471C00002018
:100B100000100240F62100080448054900684968B1
:100B2000044AC1F3C221515CC84070471C00002038
:100B300000100240F62100082DE9F0411D494A68E5
:100B40001D4802F00C03042B2ED0082B2CD11B487F
:100B5000C2F38343C45CD00328D5C86A174A00F0A7
:100B60000F000E32105CCA6AD20316D5CA6AC96A6F
:100B7000C2F30312C1F30321521C891CA2FB002300
:100B8000A1FB04150C4F0026A1FB070C05FB07C5B4
:100B900001FB0651FFF74AFB03E007496143B1FB44
:100BA000F0F00D2C00D14008BDE8F081044860430E
:100BB000FAE700000010024000127A00C821000885
:100BC00000093D002DE9F84F040070D02078F14D68
:100BD000C00749D06868C0F38100012807D0686861
:100BE000C0F38100022809D16868C00306D52868CF
:100BF000800339D5A0680028E7D035E0A068B0F5BB
:100C0000803F0BD010B1B0F5A02F11D0286820F490
:100C100080302860286820F4802002E0286840F4B2
:100C200080302860A06890B1FFF734FE06460AE0E5
:100C3000286840F480202860F0E700BFFFF72AFE14
:100C4000801B642876D828688003F7D50CE0FFF76E
:100C500021FE064605E000BFFFF71CFE801B64284E
:100C6000F0D828688003F7D42078CB4E80074FF067
:100C700001094FF000073AD5686810F00C0F07D053
:100C80006868C0F38100022809D16868C00306D4EF
:100C90002868800715D56069012808D111E06069CE
:100CA000B8B1C6F80090FFF7F5FD804606E042E1D6
:100CB000FFF7F0FDA0EB08000228C3D828688007E2
:100CC000F6D52868A16920F0F80040EAC100286044
:100CD0000DE03760FFF7DEFD804605E0FFF7DAFD47
:100CE000A0EB08000228ADD828688007F6D4207849
:100CF00000072ED5A948E169E9B1C0F80090FFF7D7
:100D0000C9FD804606E000BFFFF7C4FDA0EB080068
:100D1000022897D8686A8007F6D5A1484FF4FA519F
:100D20000068B0FBF1F0009000BF0098411E0091F8
:100D3000FAD20EE0B0E00760FFF7ACFD804605E0B8
:100D4000FFF7A8FDA0EB0800022889D8686A800791
:100D5000F6D42078400763D5E8694FF00008C0005A
:100D600009D4E86940F08050E861E8694FF0010873
:100D700000F0805000908B480168C90512D40168CA
:100D8000834641F480710160FFF784FD824605E0EF
:100D9000FFF780FDA0EB0A0064287DD8DBF8000097
:100DA000C005F5D5206901280AD008B1052813D05F
:100DB000286A20F001002862286A20F0040002E07E
:100DC000286A40F001002862206941F2883B98B10E
:100DD000FFF760FD82460BE0286A40F004002862BD
:100DE000EEE700BFFFF756FDA0EB0A01594553D8C7
:100DF000286A8007F6D50CE0FFF74CFD824605E037
:100E0000FFF748FDA0EB0A01594545D8286A80073D
:100E1000F6D4B8F1000F03D0E86920F08050E86103
:100E2000E06AD0B36968C90307D56968C1F3810175
:100E3000022902D1E96AC9037DD4022808D0E86AF0
:100E400020F48030E862B766FFF724FD80463BE07F
:100E50002868C00005D5E86A616B00F0F0008842A0
:100E600069D1B766FFF716FD804605E0FFF712FD72
:100E7000A0EB0800642874D828680001F6D4E86A5A
:100E8000616B20F0F0000843E862E86A216B20F40F
:100E900070600843E86201E063E018E0C6F868901B
:100EA000FFF7F8FC804605E0FFF7F4FCA0EB080034
:100EB000642856D828680001F6D508E0FFF7EAFC58
:100EC000A0EB080064284CD828680001F6D4206AFA
:100ED00090B36968C1F38101022949D002283766BD
:100EE00003D0FFF7D7FC04463EE0FFF7D3FC0746EC
:100EF00005E000BFFFF7CEFCC01B022831D82868F0
:100F00008001F7D4606AB0F5803F09D1E86A616872
:100F10000843E862E86AE16820F00F000843E862ED
:100F2000D4E909010843696821F474110843686031
:100F3000C6F8609001E028E029E0FFF7ABFC04462A
:100F400005E000BFFFF7A6FC001B022809D82868AF
:100F50008001F7D51BE000BFFFF79CFC001B0228B7
:100F600002D90320BDE8F88F28688001F4D40EE090
:100F70000128F7D06868626A00F48031914204D198
:100F8000A16A00F47010884201D00120EAE7002035
:100F9000E8E70000001002400000424280044242A4
:100FA0001C0000200070004070B5040009D0606A89
:100FB000002540B125616561A56294F8510040B1FA
:100FC0000CE0012070BD6068B0F5827FF4D0E5616F
:100FD000F2E784F85050204600F040F8022084F8F0
:100FE00051002068016821F040010160A08821893A
:100FF00000F4827001F404410843A18901F4006106
:101000000843217C01F002010843217D01F0010128
:101010000843218B01F400710843217F01F038015E
:10102000084394F8201001F080010843218D01F459
:101030000051084321680860A069042101EA1040BA
:10104000216848602068C16921F40061C16165655B
:10105000012084F85100002070BD000030B585B03B
:101060000024009401940294039400681449884277
:1010700023D11448816941F480518161816901F46F
:1010800080510491816941F00401816180690E4DB4
:1010900000F004000490A0200090022001900320A2
:1010A000039069462846FFF7FBFA4020CDE900048B
:1010B000694628460294FFF7F3FA05B030BD0000F8
:1010C0000030014000100240000801402DE9F84FB7
:1010D000984616468A460446FFF7DCFB814694F89C
:1010E000510001281ED1BAF1000F73D0002E71D02B
:1010F00094F85000012815D0012784F8507003207F
:1011000084F8510000256565C4F830A0A686E686FF
:10111000A563A587E58765642564A068B0F5004FE1
:1011200003D00CE00220BDE8F88F2068016821F0B0
:10113000400101602068016841F48041016020683D
:101140000168490603D4016841F040010160E0688C
:10115000B0F5006F606803D048B3012E27D047E098
:1011600008B1012E1FD1206B21680088C86006E0FD
:1011700020688168890709D5216B0988C160206BC7
:10118000801C2063E08E401EE0860CE0FFF782FBAF
:10119000A0EB0901414503D3B8F1FF3F03D035E08F
:1011A000B8F1000F32D0E08E0028E1D123E0206BAF
:1011B00021680078087306E02068816889070AD5ED
:1011C000216B09780173206B401C2063E08E401E68
:1011D000E0860DE02BE0FFF75DFBA0EB0901414548
:1011E00003D3B8F1FF3F03D010E0B8F1000F0DD0EA
:1011F000E08E0028E0D14A464146204600F0B3FD8B
:1012000008B120206065A06830B109E084F8517011
:1012100084F85050032086E72068C16880680090F9
:1012200084F8517004F8505F60680028F3D0012002
:1012300079E710B5401EB0F1807F01D3012010BDC9
:101240004FF0E02460610F21601700F071FF002073
:10125000A06107202061002010BD7047704700008A
:1012600070B590F83C20012A29D0012480F83C4038
:10127000022280F83D2003685A689D6822F07006BB
:101280000A6832435A600F4B02689A420BD0B2F19F
:10129000804F08D00C4B9A4205D00C4B9A4202D09A
:1012A0000B4B9A4204D1496825F0800319439160A1
:1012B00080F83D40002180F83C10084670BD0220B7
:1012C00070BD0000002C01400004004000080040F8
:1012D000000C004010B5040003D094F83D0010B19C
:1012E00007E0012010BD002084F83C00204600F0FB
:1012F0001FF8022084F83D00211D206800F0E2FD67
:10130000012084F8460084F83E0084F83F0084F809
:10131000400084F8410084F8420084F8430084F8D7
:10132000440084F8450084F83D00002010BD000012
:1013300008B50068B0F1804F12D10A48C16941F088
:101340000101C161C069002200F001000090114656
:101350001C20FFF709FBBDE808401C20FFF7F6BA88
:1013600008BD00000010024070B5044690F83C0033
:101370000025012817D0012684F83C60022084F85B
:101380003D002068826822F0770222F47F4282606A
:101390000868502838D00DDC20284FD005DC90B3E9
:1013A000102811D14AE0022070BD302846D04028D4
:1013B0000AD13BE060282FD070280DD0B0F5805FB7
:1013C00003D0B0F5005F12D0012584F83D60002005
:1013D00084F83C00284670BDCB68D1E90121206823
:1013E00000F0B4FD2068816841F0770109E0CB6826
:1013F000D1E90121206800F0A9FD2068816841F44D
:1014000080418160E1E719E0CA684968206800F01E
:10141000AFFD5021206806E0CA684968206800F0E6
:10142000B8FD6021206800F09BFDCEE7CA684968DE
:10143000206800F09DFD40212068F4E72268014605
:101440001046F0E770472DE9F04104460068C66891
:1014500005694FF00007A90713D5B10711D5F91E8B
:10146000016101202077206880698007204602D032
:10147000FFF7E8FF04E000F07EF8204600F07CF87B
:101480002777680716D5700714D521686FF0040018
:101490000861022020772068806910F4407F204690
:1014A00002D0FFF7CFFF04E000F065F8204600F01F
:1014B00063F82777280715D5300713D521686FF013
:1014C00008000861042020772068C0698007204652
:1014D00002D0FFF7B7FF04E000F04DF8204600F01F
:1014E0004BF82777E80616D5F00614D521686FF07B
:1014F00010000861082020772068C06910F4407F40
:10150000204602D0FFF79EFF04E000F034F82046AA
:1015100000F032F82777E80708D0F00706D02168F6
:101520006FF001000861204600F027F8280608D572
:10153000300606D521686FF0800008612046FFF76D
:101540008CFE680608D5700606D521686FF040004D
:101550000861204600F012F8A8060AD5B00608D5A2
:1015600021686FF0200008612046BDE8F041FFF7D8
:1015700075BEBDE8F081704770477047704770B521
:10158000040004D094F84100002510B106E00120C9
:1015900070BD84F84050204600F024F8242084F8E0
:1015A00041002068C16821F40051C160204600F06C
:1015B00029FD2068016921F4904101612068416999
:1015C00021F02A0141612068C16841F40051C160E5
:1015D0006564202084F8410084F84200656300209F
:1015E00070BD000030B585B00024009401940294D1
:1015F000039400681449884224D11448816941F455
:1016000080418161816901F480410491816941F0E7
:101610000401816180690E4D00F0040004904FF4D4
:101620000070009002200190032003906946284634
:10163000FFF736F82815CDE90004694628460294DC
:10164000FFF72EF805B030BD003801400010024011
:10165000000801402DE9F843044690F841009846FF
:1016600016460D46202802D00220BDE8F88385B139
:101670007EB100206064212084F84100FFF70AF960
:10168000A6848146E684A0682027B0F5805F02D05A
:1016900003E00120E9E7206910B12E4600250EE0A5
:1016A00000260CE08021204600F008FDA8B9C6B154
:1016B00016F8010B21684860E08C401EE084E08C45
:1016C0004B464FF00002CDF800800028EAD14FF0E1
:1016D0004001204600F0F2FC40B184F84170032044
:1016E000C3E735F8020BC0F30800E3E784F8417064
:1016F0000020BAE7FEE70000012202210148FFF7BF
:10170000C4B80000000C01402DE9F0410C46020A6B
:10171000C3B2184900204FF4007600BF01F8102032
:1017200001EB4005401C6B70B042F7D30122202131
:101730001148FFF7AAF8DFF8448000220121404653
:10174000FFF7A3F84FF6FF770BE03546AC4200D821
:10175000254607EA4502642306490948FFF7B6FC17
:10176000641B002CF1D14046BDE8F0410122114636
:10177000FFF78BB85801002000100140000C014019
:101780007000002070B51D46049E1446F0281ED23D
:101790004FF48C7291421AD20319F02B02D9C0F186
:1017A000F0039CB24B19934202D9C1F58C7295B2E9
:1017B0004A19521E93B20219521E92B200F023F936
:1017C00004FB05F13046BDE87040FFF79DBF70BDDA
:1017D00008B5002100904FF48C73F0220846FFF703
:1017E000D1FF08BD10B5194C012211462046FFF764
:1017F0004CF8002202212046FFF747F8144C012242
:1018000010212046FFF741F8012210212046FFF762
:101810003CF80A20FEF732FF002210212046FFF795
:1018200034F81420FEF72AFF012210212046FFF78A
:101830002CF87820FEF722FF00F00CF8FFF75CFF91
:10184000BDE810400020FFF7C3BF0000000C0140BE
:101850000010014010B5012000F022F99620FEF79B
:101860000DFF112000F01CF97820FEF707FF3A2049
:1018700000F016F9552000F055F90A20FEF7FEFE9B
:10188000362000F00DF9002000F04CF92A2000F07D
:1018900007F9002000F022F9EF2000F01FF92B20BB
:1018A00000F0FEF8002000F019F940F2171000F0E7
:1018B00015F9B22000F0F4F80C2000F033F90C20F8
:1018C00000F030F9002000F02DF9332000F02AF963
:1018D000332000F027F9B72000F0E2F8352000F0BF
:1018E00021F9BB2000F0DCF8192000F01BF9C02022
:1018F00000F0D6F82C2000F015F9C22000F0D0F846
:10190000012000F00FF9C32000F0CAF8122000F007
:1019100009F9C42000F0C4F8202000F003F9C62023
:1019200000F0BEF80F2000F0FDF8D02000F0B8F86D
:10193000A42000F0F7F8A12000F0F4F8E02000F077
:10194000AFF8D02000F0EEF8042000F0EBF80D2006
:1019500000F0E8F8112000F0E5F8132000F0E2F8BC
:101960002B2000F0DFF83F2000F0DCF8542000F0DE
:10197000D9F84C2000F0D6F8182000F0D3F80D204C
:1019800000F0D0F80B2000F0CDF81F2000F0CAF8CE
:10199000232000F0C7F8E12000F082F8D02000F00A
:1019A000C1F8042000F0BEF80C2000F0BBF81120B4
:1019B00000F0B8F8132000F0B5F82C2000F0B2F8D1
:1019C0003F2000F0AFF8442000F0ACF8512000F0C8
:1019D000A9F82F2000F0A6F81F2000F0A3F81F2080
:1019E00000F0A0F8202000F09DF8232000F09AF8E5
:1019F000212000F055F8292000F052F8BDE81040F1
:101A00001420FEF73BBEF8B507461C4615460E46A9
:101A10002A2000F045F8380A8DF800008DF8017092
:101A2000280A8DF802008DF803500421684600F062
:101A300015F82B2000F034F8300A8DF800008DF8EE
:101A40000160200A8DF802008DF8034004216846E9
:101A500000F004F82C2000F023F8F8BD70B50D4616
:101A60000446012220210B48FEF70FFF0A4E0022F8
:101A700001213046FEF709FFAAB264232146074838
:101A8000FFF724FB3046BDE8704001221146FEF707
:101A9000FCBE000000100140000C0140700000205E
:101AA00031B5002220210A48FEF7EFFE094C002242
:101AB00001212046FEF7E9FE64230122694606481B
:101AC000FFF704FB012211462046FEF7DEFE38BD7B
:101AD00000100140000C01407000002038B5010AE0
:101AE0008DF800108DF80100012220210A48FEF730
:101AF000CCFE0A4C002201212046FEF7C6FE6423DC
:101B0000022269460648FFF7E1FA01221146204603
:101B1000FEF7BBFE38BD000000100140000C014084
:101B20007000002031B5012220210A48FEF7ADFEE9
:101B3000094C002201212046FEF7A7FE6423012262
:101B400069460648FFF7C2FA012211462046FEF711
:101B50009CFE38BD00100140000C014070000020C8
:101B60000D4810B50B4901601021416000218160D2
:101B7000C16001614161017641768176C17601776C
:101B80004177FEF77FFC002803D0BDE81040FEF748
:101B900077BC10BD00640040200000200D4810B547
:101BA0000B4901601021416000218160C160016129
:101BB0004161017641768176C17601774177FEF702
:101BC00061FC002803D0BDE81040FEF759BC10BDF1
:101BD00000680040480000202DE9F04186B0002454
:101BE00024480094019402940394816941F0100107
:101BF0008161816901F010010491816941F0040162
:101C00008161816901F004010491816941F0080159
:101C100081618069184F00F0080004900022302193
:101C20003846FEF732FEDFF854800022032140469A
:101C3000FEF72BFE0720CDE90004694638460294E2
:101C4000FEF72EFD302001250226CDE90005CDE965
:101C5000024669463846FEF723FD0320CDE900051C
:101C6000CDE9024669464046FEF71AFD06B0BDE8DA
:101C7000F08100000010024000100140000C014003
:101C80000F4810B50D4901604FF482714160002189
:101C90008160C1604FF400720161C0E90512C16149
:101CA0000162416281620A21C162FFF77DF9002869
:101CB00003D0BDE81040FEF7E3BB10BD003001408B
:101CC0007000002010B586B00024164800940194DE
:101CD0000294039404944FF080410594016007211D
:101CE000C0E9011440F2E731C0E903148461FFF751
:101CF000F1FA08B1FEF7C4FB4FF48050009069463A
:101D00000848FFF731FB08B1FEF7BAFB049404A9B9
:101D100004480594FFF7A4FA002801D0FEF7B0FBB1
:101D200006B010BDC80000200C4810B50A4901607B
:101D30004FF4E1314160002181600C22C160C0E9B3
:101D400004128161C161FFF71AFC002803D0BDE8CD
:101D50001040FEF795BB10BD003801401001002077
:101D6000FEE7FEE77047F8B515460E460B460092B3
:101D700004460122022100F011F840B93346002246
:101D800080212046009500F009F8002804D0606DFD
:101D900040F0200060650320F8BD00002DE9F84305
:101DA0001E46914688460446089DFEF773FD401B7B
:101DB000351AFEF76FFD074625480068C0F3CB30A3
:101DC000684338E0701C37D0FEF764FDC01BA842A2
:101DD00003D215B1009860B32CE02068416821F06F
:101DE000E00141606068B0F5827F0BD1A068B0F57A
:101DF000004F02D0B0F5806F04D12068016821F057
:101E000040010160A06AB0F5005F09D12068016857
:101E100021F4005101602068016841F40051016023
:101E2000012084F85100002084F850000320BDE810
:101E3000F8830025401E00902068816838EA010080
:101E400004D000214945BDD10020F0E70121F9E788
:101E50001C0000207047FEF723BD000030B593B092
:101E600038216846FEF759FA14210EA8FEF755FAF4
:101E70000220002400900125102008940B94CDE945
:101E800005506846FEF79EFE08B172B6FEE70F20C9
:101E9000CDE90E041094119400210EA81294FEF7BF
:101EA00095FD08B172B6FEE70148056713B030BD75
:101EB00000004242704700000148FFF7C4BA00002A
:101EC000C8000020F0B502681C4B1D4C1D4D1E4E75
:101ED0004FF08047984207D0B84205D0A04203D0C7
:101EE000A84201D0B04204D122F0700C4A6842EA04
:101EF0000C02984207D0B84205D0A04203D0A842B5
:101F000001D0B04203D122F44074CA6822434C6924
:101F100022F08002224302608A68C2620A688262FA
:101F2000984201D109690163012141610169C90731
:101F300003D0016921F001010161F0BD002C0140D5
:101F40000004004000080040000C004010B5846808
:101F500042EA032224F47F440A432243826010BDF4
:101F6000826822F070020A4342F0070181607047E4
:101F700010B5036A046A24F001040462846924F041
:101F8000F00444EA021423F00A020A438461026264
:101F900010BD10B5036A046A24F010040462846959
:101FA00023F0A00324F4704444EA023243EA01110E
:101FB0008261016210BD01680C3151E8002F22F4EA
:101FC000907241E80023002BF5D10168143151E8EB
:101FD000002F22F0010241E80023002BF5D1016B14
:101FE000012909D101680C3151E8002F22F01002BB
:101FF00041E80023002BF5D1202180F84210002178
:102000000163704770B5044600680169E26821F415
:102010004051114301612169A06808436169084387
:102020002168CA6841F20C639A430243CA6020687F
:102030004169A26921F44071114341611E49206840
:10204000884202D1FEF768FD01E0FEF755FD00EB86
:10205000C00101EB0012606864218000B2FBF0F364
:10206000B3FBF1F36FF018067343B2FBF0F5B2FB6C
:10207000F0F605EB8305322303EB0515B5FBF1F50F
:10208000B6FBF1F605F0F00505EB0615B2FBF0F630
:10209000B2FBF0F0B0FBF1F06FF01802504306EB2A
:1020A000800003EB0010B0FBF1F0216800F00F009E
:1020B0002844886070BD0000003801402DE9F843D5
:1020C000984617460D460446089E24E0701C22D010
:1020D000FEF7E0FBA0EB0800B0421AD8CEB12068B2
:1020E000C168490717D5802D15D0402D13D0016840
:1020F000C94309070FD401680025406800902046B5
:10210000FFF759FF0820606484F840500120BDE8C3
:10211000F8830320FBE72068006835EA000004D05C
:102120000020B842D2D00020F1E70120F9E7FEE715
:102130000907090E002804DB00F1E02080F80014F4
:10214000704700F00F0000F1E02080F8141D704788
:10215000FEF7AEFBFFF782FEFFF73EFDFFF700FD47
:10216000FFF71CFDFFF78CFDFFF7DEFDFFF7AAFD73
:10217000FFF738FB4FF6FF70FFF72AFBFEF734F945
:102180000520FEF77BFAF9E700000000FFFFFFFFE4
:10219000010000000200000001000000000000003B
:1021A00002000000FFFFFFFFFFFFFFFFFEFFFFFF3A
:1021B0000000000001000000FEFFFFFF0100000022
:1021C000FFFFFFFF000000000000040506070809EC
:1021D00000000000000D0102030405060708090ABB
:1021E0000B0C0D0E0F10000000000000000001029B
:1021F00003040607080900000000010203040000B0
:102200002022000800000020200000008C010008AF
:102210004022000820000020980B0000A8010008C0
:1022200000000000000000000000000000000000AE
:1022300001000000100000000000000000127A0001
:04000005080001519D
:00000001FF
